{
	"learning.sol": {
		"Learning": {
			"abi": [
				{
					"inputs": [],
					"stateMutability": "nonpayable",
					"type": "constructor"
				},
				{
					"inputs": [
						{
							"internalType": "address",
							"name": "sender",
							"type": "address"
						},
						{
							"internalType": "int256",
							"name": "i",
							"type": "int256"
						}
					],
					"name": "Unauthorized",
					"type": "error"
				},
				{
					"inputs": [],
					"name": "MY_ADDRESS",
					"outputs": [
						{
							"internalType": "address",
							"name": "",
							"type": "address"
						}
					],
					"stateMutability": "view",
					"type": "function"
				},
				{
					"inputs": [],
					"name": "MY_ADDRESS2",
					"outputs": [
						{
							"internalType": "address",
							"name": "",
							"type": "address"
						}
					],
					"stateMutability": "view",
					"type": "function"
				},
				{
					"inputs": [
						{
							"internalType": "int8",
							"name": "x",
							"type": "int8"
						},
						{
							"internalType": "int8",
							"name": "y",
							"type": "int8"
						}
					],
					"name": "add",
					"outputs": [
						{
							"internalType": "int8",
							"name": "",
							"type": "int8"
						}
					],
					"stateMutability": "pure",
					"type": "function"
				},
				{
					"inputs": [
						{
							"internalType": "uint256",
							"name": "x",
							"type": "uint256"
						}
					],
					"name": "assertExample",
					"outputs": [],
					"stateMutability": "pure",
					"type": "function"
				},
				{
					"inputs": [
						{
							"internalType": "int256",
							"name": "i",
							"type": "int256"
						}
					],
					"name": "customErrorExample",
					"outputs": [],
					"stateMutability": "view",
					"type": "function"
				},
				{
					"inputs": [
						{
							"internalType": "uint256",
							"name": "x",
							"type": "uint256"
						}
					],
					"name": "exampleView",
					"outputs": [
						{
							"internalType": "uint256",
							"name": "",
							"type": "uint256"
						}
					],
					"stateMutability": "view",
					"type": "function"
				},
				{
					"inputs": [
						{
							"internalType": "uint256",
							"name": "x",
							"type": "uint256"
						}
					],
					"name": "forLoopExample",
					"outputs": [
						{
							"internalType": "uint256",
							"name": "",
							"type": "uint256"
						}
					],
					"stateMutability": "pure",
					"type": "function"
				},
				{
					"inputs": [
						{
							"internalType": "uint256",
							"name": "x",
							"type": "uint256"
						}
					],
					"name": "ifElseExample",
					"outputs": [
						{
							"internalType": "uint256",
							"name": "",
							"type": "uint256"
						}
					],
					"stateMutability": "pure",
					"type": "function"
				},
				{
					"inputs": [],
					"name": "isOwner",
					"outputs": [
						{
							"internalType": "bool",
							"name": "",
							"type": "bool"
						}
					],
					"stateMutability": "view",
					"type": "function"
				},
				{
					"inputs": [
						{
							"internalType": "uint256",
							"name": "x",
							"type": "uint256"
						}
					],
					"name": "requireExample",
					"outputs": [],
					"stateMutability": "pure",
					"type": "function"
				},
				{
					"inputs": [
						{
							"internalType": "uint256",
							"name": "x",
							"type": "uint256"
						}
					],
					"name": "revertExample",
					"outputs": [],
					"stateMutability": "pure",
					"type": "function"
				},
				{
					"inputs": [
						{
							"internalType": "int256",
							"name": "age",
							"type": "int256"
						}
					],
					"name": "someFunctionOnlyAdultOwnerCanCall",
					"outputs": [],
					"stateMutability": "nonpayable",
					"type": "function"
				},
				{
					"inputs": [],
					"name": "someFunctionOnlyOwnerCanCall",
					"outputs": [],
					"stateMutability": "nonpayable",
					"type": "function"
				}
			],
			"devdoc": {
				"kind": "dev",
				"methods": {},
				"version": 1
			},
			"evm": {
				"assembly": "    /* \"learning.sol\":60:4169  contract Learning {... */\n  mstore(0x40, 0x80)\n    /* \"learning.sol\":108:109  1 */\n  0x01\n    /* \"learning.sol\":99:109  uint a = 1 */\n  0x00\n  sstore\n    /* \"learning.sol\":147:149  -1 */\n  0xffffffffffffffffffffffffffffffffffffffffffffffffffffffffffffffff\n    /* \"learning.sol\":139:149  int b = -1 */\n  0x01\n  sstore\n    /* \"learning.sol\":216:217  1 */\n  0x01\n    /* \"learning.sol\":193:218  address addr = address(1) */\n  0x02\n  exp(0x0100, 0x00)\n  dup2\n  sload\n  dup2\n  0xffffffffffffffffffffffffffffffffffffffff\n  mul\n  not\n  and\n  swap1\n  dup4\n  0xffffffffffffffffffffffffffffffffffffffff\n  and\n  mul\n  or\n  swap1\n  sstore\n  pop\n    /* \"learning.sol\":258:262  true */\n  0x01\n    /* \"learning.sol\":244:262  bool isTrue = true */\n  0x02\n  exp(0x0100, 0x14)\n  dup2\n  sload\n  dup2\n  0xff\n  mul\n  not\n  and\n  swap1\n  dup4\n  iszero\n  iszero\n  mul\n  or\n  swap1\n  sstore\n  pop\n    /* \"learning.sol\":300:324  string name = \"Learning\" */\n  mload(0x40)\n  dup1\n  0x40\n  add\n  0x40\n  mstore\n  dup1\n  0x08\n  dup2\n  mstore\n  0x20\n  add\n  0x4c6561726e696e67000000000000000000000000000000000000000000000000\n  dup2\n  mstore\n  pop\n  0x03\n  swap1\n  dup2\n  tag_1\n  swap2\n  swap1\n  tag_2\n  jump\t// in\ntag_1:\n  pop\n    /* \"learning.sol\":379:407  abi.encodePacked(\"Learning\") */\n  add(0x20, mload(0x40))\n  tag_3\n  swap1\n  tag_4\n  jump\t// in\ntag_3:\n  mload(0x40)\n  0x20\n  dup2\n  dup4\n  sub\n  sub\n  dup2\n  mstore\n  swap1\n  0x40\n  mstore\n    /* \"learning.sol\":369:408  keccak256(abi.encodePacked(\"Learning\")) */\n  dup1\n  mload\n  swap1\n  0x20\n  add\n  keccak256\n    /* \"learning.sol\":354:408  bytes32 hash = keccak256(abi.encodePacked(\"Learning\")) */\n  0x04\n  sstore\n    /* \"learning.sol\":774:784  msg.sender */\n  caller\n    /* \"learning.sol\":757:784  address sender = msg.sender */\n  0x05\n  exp(0x0100, 0x00)\n  dup2\n  sload\n  dup2\n  0xffffffffffffffffffffffffffffffffffffffff\n  mul\n  not\n  and\n  swap1\n  dup4\n  0xffffffffffffffffffffffffffffffffffffffff\n  and\n  mul\n  or\n  swap1\n  sstore\n  pop\n    /* \"learning.sol\":861:873  block.number */\n  number\n    /* \"learning.sol\":839:873  uint256 blockNumber = block.number */\n  0x06\n  sstore\n    /* \"learning.sol\":924:939  block.timestamp */\n  timestamp\n    /* \"learning.sol\":904:939  uint256 timestamp = block.timestamp */\n  0x07\n  sstore\n    /* \"learning.sol\":991:1000  gasleft() */\n  gas\n    /* \"learning.sol\":973:1000  uint256 gasLeft = gasleft() */\n  0x08\n  sstore\n    /* \"learning.sol\":1503:1504  2 */\n  0x02\n    /* \"learning.sol\":1466:1505  address public MY_ADDRESS2 = address(2) */\n  0x09\n  exp(0x0100, 0x00)\n  dup2\n  sload\n  dup2\n  0xffffffffffffffffffffffffffffffffffffffff\n  mul\n  not\n  and\n  swap1\n  dup4\n  0xffffffffffffffffffffffffffffffffffffffff\n  and\n  mul\n  or\n  swap1\n  sstore\n  pop\n    /* \"learning.sol\":4117:4164  constructor() {... */\n  callvalue\n  dup1\n  iszero\n  tag_5\n  jumpi\n  revert(0x00, 0x00)\ntag_5:\n  pop\n    /* \"learning.sol\":4152:4156  true */\n  0x01\n    /* \"learning.sol\":4142:4149  isOwner */\n  0x09\n  0x14\n    /* \"learning.sol\":4142:4156  isOwner = true */\n  0x0100\n  exp\n  dup2\n  sload\n  dup2\n  0xff\n  mul\n  not\n  and\n  swap1\n  dup4\n  iszero\n  iszero\n  mul\n  or\n  swap1\n  sstore\n  pop\n    /* \"learning.sol\":60:4169  contract Learning {... */\n  jump(tag_8)\n    /* \"#utility.yul\":7:106   */\ntag_9:\n    /* \"#utility.yul\":59:65   */\n  0x00\n    /* \"#utility.yul\":93:98   */\n  dup2\n    /* \"#utility.yul\":87:99   */\n  mload\n    /* \"#utility.yul\":77:99   */\n  swap1\n  pop\n    /* \"#utility.yul\":7:106   */\n  swap2\n  swap1\n  pop\n  jump\t// out\n    /* \"#utility.yul\":112:292   */\ntag_10:\n    /* \"#utility.yul\":160:237   */\n  0x4e487b7100000000000000000000000000000000000000000000000000000000\n    /* \"#utility.yul\":157:158   */\n  0x00\n    /* \"#utility.yul\":150:238   */\n  mstore\n    /* \"#utility.yul\":257:261   */\n  0x41\n    /* \"#utility.yul\":254:255   */\n  0x04\n    /* \"#utility.yul\":247:262   */\n  mstore\n    /* \"#utility.yul\":281:285   */\n  0x24\n    /* \"#utility.yul\":278:279   */\n  0x00\n    /* \"#utility.yul\":271:286   */\n  revert\n    /* \"#utility.yul\":298:478   */\ntag_11:\n    /* \"#utility.yul\":346:423   */\n  0x4e487b7100000000000000000000000000000000000000000000000000000000\n    /* \"#utility.yul\":343:344   */\n  0x00\n    /* \"#utility.yul\":336:424   */\n  mstore\n    /* \"#utility.yul\":443:447   */\n  0x22\n    /* \"#utility.yul\":440:441   */\n  0x04\n    /* \"#utility.yul\":433:448   */\n  mstore\n    /* \"#utility.yul\":467:471   */\n  0x24\n    /* \"#utility.yul\":464:465   */\n  0x00\n    /* \"#utility.yul\":457:472   */\n  revert\n    /* \"#utility.yul\":484:804   */\ntag_12:\n    /* \"#utility.yul\":528:534   */\n  0x00\n    /* \"#utility.yul\":565:566   */\n  0x02\n    /* \"#utility.yul\":559:563   */\n  dup3\n    /* \"#utility.yul\":555:567   */\n  div\n    /* \"#utility.yul\":545:567   */\n  swap1\n  pop\n    /* \"#utility.yul\":612:613   */\n  0x01\n    /* \"#utility.yul\":606:610   */\n  dup3\n    /* \"#utility.yul\":602:614   */\n  and\n    /* \"#utility.yul\":633:651   */\n  dup1\n    /* \"#utility.yul\":623:704   */\n  tag_37\n  jumpi\n    /* \"#utility.yul\":689:693   */\n  0x7f\n    /* \"#utility.yul\":681:687   */\n  dup3\n    /* \"#utility.yul\":677:694   */\n  and\n    /* \"#utility.yul\":667:694   */\n  swap2\n  pop\n    /* \"#utility.yul\":623:704   */\ntag_37:\n    /* \"#utility.yul\":751:753   */\n  0x20\n    /* \"#utility.yul\":743:749   */\n  dup3\n    /* \"#utility.yul\":740:754   */\n  lt\n    /* \"#utility.yul\":720:738   */\n  dup2\n    /* \"#utility.yul\":717:755   */\n  sub\n    /* \"#utility.yul\":714:798   */\n  tag_38\n  jumpi\n    /* \"#utility.yul\":770:788   */\n  tag_39\n  tag_11\n  jump\t// in\ntag_39:\n    /* \"#utility.yul\":714:798   */\ntag_38:\n    /* \"#utility.yul\":535:804   */\n  pop\n    /* \"#utility.yul\":484:804   */\n  swap2\n  swap1\n  pop\n  jump\t// out\n    /* \"#utility.yul\":810:951   */\ntag_13:\n    /* \"#utility.yul\":859:863   */\n  0x00\n    /* \"#utility.yul\":882:885   */\n  dup2\n    /* \"#utility.yul\":874:885   */\n  swap1\n  pop\n    /* \"#utility.yul\":905:908   */\n  dup2\n    /* \"#utility.yul\":902:903   */\n  0x00\n    /* \"#utility.yul\":895:909   */\n  mstore\n    /* \"#utility.yul\":939:943   */\n  0x20\n    /* \"#utility.yul\":936:937   */\n  0x00\n    /* \"#utility.yul\":926:944   */\n  keccak256\n    /* \"#utility.yul\":918:944   */\n  swap1\n  pop\n    /* \"#utility.yul\":810:951   */\n  swap2\n  swap1\n  pop\n  jump\t// out\n    /* \"#utility.yul\":957:1050   */\ntag_14:\n    /* \"#utility.yul\":994:1000   */\n  0x00\n    /* \"#utility.yul\":1041:1043   */\n  0x20\n    /* \"#utility.yul\":1036:1038   */\n  0x1f\n    /* \"#utility.yul\":1029:1034   */\n  dup4\n    /* \"#utility.yul\":1025:1039   */\n  add\n    /* \"#utility.yul\":1021:1044   */\n  div\n    /* \"#utility.yul\":1011:1044   */\n  swap1\n  pop\n    /* \"#utility.yul\":957:1050   */\n  swap2\n  swap1\n  pop\n  jump\t// out\n    /* \"#utility.yul\":1056:1163   */\ntag_15:\n    /* \"#utility.yul\":1100:1108   */\n  0x00\n    /* \"#utility.yul\":1150:1155   */\n  dup3\n    /* \"#utility.yul\":1144:1148   */\n  dup3\n    /* \"#utility.yul\":1140:1156   */\n  shl\n    /* \"#utility.yul\":1119:1156   */\n  swap1\n  pop\n    /* \"#utility.yul\":1056:1163   */\n  swap3\n  swap2\n  pop\n  pop\n  jump\t// out\n    /* \"#utility.yul\":1169:1562   */\ntag_16:\n    /* \"#utility.yul\":1238:1244   */\n  0x00\n    /* \"#utility.yul\":1288:1289   */\n  0x08\n    /* \"#utility.yul\":1276:1286   */\n  dup4\n    /* \"#utility.yul\":1272:1290   */\n  mul\n    /* \"#utility.yul\":1311:1408   */\n  tag_44\n    /* \"#utility.yul\":1341:1407   */\n  0xffffffffffffffffffffffffffffffffffffffffffffffffffffffffffffffff\n    /* \"#utility.yul\":1330:1339   */\n  dup3\n    /* \"#utility.yul\":1311:1408   */\n  tag_15\n  jump\t// in\ntag_44:\n    /* \"#utility.yul\":1429:1468   */\n  tag_45\n    /* \"#utility.yul\":1459:1467   */\n  dup7\n    /* \"#utility.yul\":1448:1457   */\n  dup4\n    /* \"#utility.yul\":1429:1468   */\n  tag_15\n  jump\t// in\ntag_45:\n    /* \"#utility.yul\":1417:1468   */\n  swap6\n  pop\n    /* \"#utility.yul\":1501:1505   */\n  dup1\n    /* \"#utility.yul\":1497:1506   */\n  not\n    /* \"#utility.yul\":1490:1495   */\n  dup5\n    /* \"#utility.yul\":1486:1507   */\n  and\n    /* \"#utility.yul\":1477:1507   */\n  swap4\n  pop\n    /* \"#utility.yul\":1550:1554   */\n  dup1\n    /* \"#utility.yul\":1540:1548   */\n  dup7\n    /* \"#utility.yul\":1536:1555   */\n  and\n    /* \"#utility.yul\":1529:1534   */\n  dup5\n    /* \"#utility.yul\":1526:1556   */\n  or\n    /* \"#utility.yul\":1516:1556   */\n  swap3\n  pop\n    /* \"#utility.yul\":1245:1562   */\n  pop\n  pop\n    /* \"#utility.yul\":1169:1562   */\n  swap4\n  swap3\n  pop\n  pop\n  pop\n  jump\t// out\n    /* \"#utility.yul\":1568:1645   */\ntag_17:\n    /* \"#utility.yul\":1605:1612   */\n  0x00\n    /* \"#utility.yul\":1634:1639   */\n  dup2\n    /* \"#utility.yul\":1623:1639   */\n  swap1\n  pop\n    /* \"#utility.yul\":1568:1645   */\n  swap2\n  swap1\n  pop\n  jump\t// out\n    /* \"#utility.yul\":1651:1711   */\ntag_18:\n    /* \"#utility.yul\":1679:1682   */\n  0x00\n    /* \"#utility.yul\":1700:1705   */\n  dup2\n    /* \"#utility.yul\":1693:1705   */\n  swap1\n  pop\n    /* \"#utility.yul\":1651:1711   */\n  swap2\n  swap1\n  pop\n  jump\t// out\n    /* \"#utility.yul\":1717:1859   */\ntag_19:\n    /* \"#utility.yul\":1767:1776   */\n  0x00\n    /* \"#utility.yul\":1800:1853   */\n  tag_49\n    /* \"#utility.yul\":1818:1852   */\n  tag_50\n    /* \"#utility.yul\":1827:1851   */\n  tag_51\n    /* \"#utility.yul\":1845:1850   */\n  dup5\n    /* \"#utility.yul\":1827:1851   */\n  tag_17\n  jump\t// in\ntag_51:\n    /* \"#utility.yul\":1818:1852   */\n  tag_18\n  jump\t// in\ntag_50:\n    /* \"#utility.yul\":1800:1853   */\n  tag_17\n  jump\t// in\ntag_49:\n    /* \"#utility.yul\":1787:1853   */\n  swap1\n  pop\n    /* \"#utility.yul\":1717:1859   */\n  swap2\n  swap1\n  pop\n  jump\t// out\n    /* \"#utility.yul\":1865:1940   */\ntag_20:\n    /* \"#utility.yul\":1908:1911   */\n  0x00\n    /* \"#utility.yul\":1929:1934   */\n  dup2\n    /* \"#utility.yul\":1922:1934   */\n  swap1\n  pop\n    /* \"#utility.yul\":1865:1940   */\n  swap2\n  swap1\n  pop\n  jump\t// out\n    /* \"#utility.yul\":1946:2215   */\ntag_21:\n    /* \"#utility.yul\":2056:2095   */\n  tag_54\n    /* \"#utility.yul\":2087:2094   */\n  dup4\n    /* \"#utility.yul\":2056:2095   */\n  tag_19\n  jump\t// in\ntag_54:\n    /* \"#utility.yul\":2117:2208   */\n  tag_55\n    /* \"#utility.yul\":2166:2207   */\n  tag_56\n    /* \"#utility.yul\":2190:2206   */\n  dup3\n    /* \"#utility.yul\":2166:2207   */\n  tag_20\n  jump\t// in\ntag_56:\n    /* \"#utility.yul\":2158:2164   */\n  dup5\n    /* \"#utility.yul\":2151:2155   */\n  dup5\n    /* \"#utility.yul\":2145:2156   */\n  sload\n    /* \"#utility.yul\":2117:2208   */\n  tag_16\n  jump\t// in\ntag_55:\n    /* \"#utility.yul\":2111:2115   */\n  dup3\n    /* \"#utility.yul\":2104:2209   */\n  sstore\n    /* \"#utility.yul\":2022:2215   */\n  pop\n    /* \"#utility.yul\":1946:2215   */\n  pop\n  pop\n  pop\n  jump\t// out\n    /* \"#utility.yul\":2221:2294   */\ntag_22:\n    /* \"#utility.yul\":2266:2269   */\n  0x00\n    /* \"#utility.yul\":2287:2288   */\n  0x00\n    /* \"#utility.yul\":2280:2288   */\n  swap1\n  pop\n    /* \"#utility.yul\":2221:2294   */\n  swap1\n  jump\t// out\n    /* \"#utility.yul\":2300:2489   */\ntag_23:\n    /* \"#utility.yul\":2377:2409   */\n  tag_59\n  tag_22\n  jump\t// in\ntag_59:\n    /* \"#utility.yul\":2418:2483   */\n  tag_60\n    /* \"#utility.yul\":2476:2482   */\n  dup2\n    /* \"#utility.yul\":2468:2474   */\n  dup5\n    /* \"#utility.yul\":2462:2466   */\n  dup5\n    /* \"#utility.yul\":2418:2483   */\n  tag_21\n  jump\t// in\ntag_60:\n    /* \"#utility.yul\":2353:2489   */\n  pop\n    /* \"#utility.yul\":2300:2489   */\n  pop\n  pop\n  jump\t// out\n    /* \"#utility.yul\":2495:2681   */\ntag_24:\n    /* \"#utility.yul\":2555:2675   */\ntag_62:\n    /* \"#utility.yul\":2572:2575   */\n  dup2\n    /* \"#utility.yul\":2565:2570   */\n  dup2\n    /* \"#utility.yul\":2562:2576   */\n  lt\n    /* \"#utility.yul\":2555:2675   */\n  iszero\n  tag_64\n  jumpi\n    /* \"#utility.yul\":2626:2665   */\n  tag_65\n    /* \"#utility.yul\":2663:2664   */\n  0x00\n    /* \"#utility.yul\":2656:2661   */\n  dup3\n    /* \"#utility.yul\":2626:2665   */\n  tag_23\n  jump\t// in\ntag_65:\n    /* \"#utility.yul\":2599:2600   */\n  0x01\n    /* \"#utility.yul\":2592:2597   */\n  dup2\n    /* \"#utility.yul\":2588:2601   */\n  add\n    /* \"#utility.yul\":2579:2601   */\n  swap1\n  pop\n    /* \"#utility.yul\":2555:2675   */\n  jump(tag_62)\ntag_64:\n    /* \"#utility.yul\":2495:2681   */\n  pop\n  pop\n  jump\t// out\n    /* \"#utility.yul\":2687:3230   */\ntag_25:\n    /* \"#utility.yul\":2788:2790   */\n  0x1f\n    /* \"#utility.yul\":2783:2786   */\n  dup3\n    /* \"#utility.yul\":2780:2791   */\n  gt\n    /* \"#utility.yul\":2777:3223   */\n  iszero\n  tag_67\n  jumpi\n    /* \"#utility.yul\":2822:2860   */\n  tag_68\n    /* \"#utility.yul\":2854:2859   */\n  dup2\n    /* \"#utility.yul\":2822:2860   */\n  tag_13\n  jump\t// in\ntag_68:\n    /* \"#utility.yul\":2906:2935   */\n  tag_69\n    /* \"#utility.yul\":2924:2934   */\n  dup5\n    /* \"#utility.yul\":2906:2935   */\n  tag_14\n  jump\t// in\ntag_69:\n    /* \"#utility.yul\":2896:2904   */\n  dup2\n    /* \"#utility.yul\":2892:2936   */\n  add\n    /* \"#utility.yul\":3089:3091   */\n  0x20\n    /* \"#utility.yul\":3077:3087   */\n  dup6\n    /* \"#utility.yul\":3074:3092   */\n  lt\n    /* \"#utility.yul\":3071:3120   */\n  iszero\n  tag_70\n  jumpi\n    /* \"#utility.yul\":3110:3118   */\n  dup2\n    /* \"#utility.yul\":3095:3118   */\n  swap1\n  pop\n    /* \"#utility.yul\":3071:3120   */\ntag_70:\n    /* \"#utility.yul\":3133:3213   */\n  tag_71\n    /* \"#utility.yul\":3189:3211   */\n  tag_72\n    /* \"#utility.yul\":3207:3210   */\n  dup6\n    /* \"#utility.yul\":3189:3211   */\n  tag_14\n  jump\t// in\ntag_72:\n    /* \"#utility.yul\":3179:3187   */\n  dup4\n    /* \"#utility.yul\":3175:3212   */\n  add\n    /* \"#utility.yul\":3162:3173   */\n  dup3\n    /* \"#utility.yul\":3133:3213   */\n  tag_24\n  jump\t// in\ntag_71:\n    /* \"#utility.yul\":2792:3223   */\n  pop\n  pop\n    /* \"#utility.yul\":2777:3223   */\ntag_67:\n    /* \"#utility.yul\":2687:3230   */\n  pop\n  pop\n  pop\n  jump\t// out\n    /* \"#utility.yul\":3236:3353   */\ntag_26:\n    /* \"#utility.yul\":3290:3298   */\n  0x00\n    /* \"#utility.yul\":3340:3345   */\n  dup3\n    /* \"#utility.yul\":3334:3338   */\n  dup3\n    /* \"#utility.yul\":3330:3346   */\n  shr\n    /* \"#utility.yul\":3309:3346   */\n  swap1\n  pop\n    /* \"#utility.yul\":3236:3353   */\n  swap3\n  swap2\n  pop\n  pop\n  jump\t// out\n    /* \"#utility.yul\":3359:3528   */\ntag_27:\n    /* \"#utility.yul\":3403:3409   */\n  0x00\n    /* \"#utility.yul\":3436:3487   */\n  tag_75\n    /* \"#utility.yul\":3484:3485   */\n  0x00\n    /* \"#utility.yul\":3480:3486   */\n  not\n    /* \"#utility.yul\":3472:3477   */\n  dup5\n    /* \"#utility.yul\":3469:3470   */\n  0x08\n    /* \"#utility.yul\":3465:3478   */\n  mul\n    /* \"#utility.yul\":3436:3487   */\n  tag_26\n  jump\t// in\ntag_75:\n    /* \"#utility.yul\":3432:3488   */\n  not\n    /* \"#utility.yul\":3517:3521   */\n  dup1\n    /* \"#utility.yul\":3511:3515   */\n  dup4\n    /* \"#utility.yul\":3507:3522   */\n  and\n    /* \"#utility.yul\":3497:3522   */\n  swap2\n  pop\n    /* \"#utility.yul\":3410:3528   */\n  pop\n    /* \"#utility.yul\":3359:3528   */\n  swap3\n  swap2\n  pop\n  pop\n  jump\t// out\n    /* \"#utility.yul\":3533:3828   */\ntag_28:\n    /* \"#utility.yul\":3609:3613   */\n  0x00\n    /* \"#utility.yul\":3755:3784   */\n  tag_77\n    /* \"#utility.yul\":3780:3783   */\n  dup4\n    /* \"#utility.yul\":3774:3778   */\n  dup4\n    /* \"#utility.yul\":3755:3784   */\n  tag_27\n  jump\t// in\ntag_77:\n    /* \"#utility.yul\":3747:3784   */\n  swap2\n  pop\n    /* \"#utility.yul\":3817:3820   */\n  dup3\n    /* \"#utility.yul\":3814:3815   */\n  0x02\n    /* \"#utility.yul\":3810:3821   */\n  mul\n    /* \"#utility.yul\":3804:3808   */\n  dup3\n    /* \"#utility.yul\":3801:3822   */\n  or\n    /* \"#utility.yul\":3793:3822   */\n  swap1\n  pop\n    /* \"#utility.yul\":3533:3828   */\n  swap3\n  swap2\n  pop\n  pop\n  jump\t// out\n    /* \"#utility.yul\":3833:5228   */\ntag_2:\n    /* \"#utility.yul\":3950:3987   */\n  tag_79\n    /* \"#utility.yul\":3983:3986   */\n  dup3\n    /* \"#utility.yul\":3950:3987   */\n  tag_9\n  jump\t// in\ntag_79:\n    /* \"#utility.yul\":4052:4070   */\n  0xffffffffffffffff\n    /* \"#utility.yul\":4044:4050   */\n  dup2\n    /* \"#utility.yul\":4041:4071   */\n  gt\n    /* \"#utility.yul\":4038:4094   */\n  iszero\n  tag_80\n  jumpi\n    /* \"#utility.yul\":4074:4092   */\n  tag_81\n  tag_10\n  jump\t// in\ntag_81:\n    /* \"#utility.yul\":4038:4094   */\ntag_80:\n    /* \"#utility.yul\":4118:4156   */\n  tag_82\n    /* \"#utility.yul\":4150:4154   */\n  dup3\n    /* \"#utility.yul\":4144:4155   */\n  sload\n    /* \"#utility.yul\":4118:4156   */\n  tag_12\n  jump\t// in\ntag_82:\n    /* \"#utility.yul\":4203:4270   */\n  tag_83\n    /* \"#utility.yul\":4263:4269   */\n  dup3\n    /* \"#utility.yul\":4255:4261   */\n  dup3\n    /* \"#utility.yul\":4249:4253   */\n  dup6\n    /* \"#utility.yul\":4203:4270   */\n  tag_25\n  jump\t// in\ntag_83:\n    /* \"#utility.yul\":4297:4298   */\n  0x00\n    /* \"#utility.yul\":4321:4325   */\n  0x20\n    /* \"#utility.yul\":4308:4325   */\n  swap1\n  pop\n    /* \"#utility.yul\":4353:4355   */\n  0x1f\n    /* \"#utility.yul\":4345:4351   */\n  dup4\n    /* \"#utility.yul\":4342:4356   */\n  gt\n    /* \"#utility.yul\":4370:4371   */\n  0x01\n    /* \"#utility.yul\":4365:4983   */\n  dup2\n  eq\n  tag_85\n  jumpi\n    /* \"#utility.yul\":5027:5028   */\n  0x00\n    /* \"#utility.yul\":5044:5050   */\n  dup5\n    /* \"#utility.yul\":5041:5118   */\n  iszero\n  tag_86\n  jumpi\n    /* \"#utility.yul\":5093:5102   */\n  dup3\n    /* \"#utility.yul\":5088:5091   */\n  dup8\n    /* \"#utility.yul\":5084:5103   */\n  add\n    /* \"#utility.yul\":5078:5104   */\n  mload\n    /* \"#utility.yul\":5069:5104   */\n  swap1\n  pop\n    /* \"#utility.yul\":5041:5118   */\ntag_86:\n    /* \"#utility.yul\":5144:5211   */\n  tag_87\n    /* \"#utility.yul\":5204:5210   */\n  dup6\n    /* \"#utility.yul\":5197:5202   */\n  dup3\n    /* \"#utility.yul\":5144:5211   */\n  tag_28\n  jump\t// in\ntag_87:\n    /* \"#utility.yul\":5138:5142   */\n  dup7\n    /* \"#utility.yul\":5131:5212   */\n  sstore\n    /* \"#utility.yul\":5000:5222   */\n  pop\n    /* \"#utility.yul\":4335:5222   */\n  jump(tag_84)\n    /* \"#utility.yul\":4365:4983   */\ntag_85:\n    /* \"#utility.yul\":4417:4421   */\n  0x1f\n    /* \"#utility.yul\":4413:4422   */\n  not\n    /* \"#utility.yul\":4405:4411   */\n  dup5\n    /* \"#utility.yul\":4401:4423   */\n  and\n    /* \"#utility.yul\":4451:4488   */\n  tag_88\n    /* \"#utility.yul\":4483:4487   */\n  dup7\n    /* \"#utility.yul\":4451:4488   */\n  tag_13\n  jump\t// in\ntag_88:\n    /* \"#utility.yul\":4510:4511   */\n  0x00\n    /* \"#utility.yul\":4524:4732   */\ntag_89:\n    /* \"#utility.yul\":4538:4545   */\n  dup3\n    /* \"#utility.yul\":4535:4536   */\n  dup2\n    /* \"#utility.yul\":4532:4546   */\n  lt\n    /* \"#utility.yul\":4524:4732   */\n  iszero\n  tag_91\n  jumpi\n    /* \"#utility.yul\":4617:4626   */\n  dup5\n    /* \"#utility.yul\":4612:4615   */\n  dup10\n    /* \"#utility.yul\":4608:4627   */\n  add\n    /* \"#utility.yul\":4602:4628   */\n  mload\n    /* \"#utility.yul\":4594:4600   */\n  dup3\n    /* \"#utility.yul\":4587:4629   */\n  sstore\n    /* \"#utility.yul\":4668:4669   */\n  0x01\n    /* \"#utility.yul\":4660:4666   */\n  dup3\n    /* \"#utility.yul\":4656:4670   */\n  add\n    /* \"#utility.yul\":4646:4670   */\n  swap2\n  pop\n    /* \"#utility.yul\":4715:4717   */\n  0x20\n    /* \"#utility.yul\":4704:4713   */\n  dup6\n    /* \"#utility.yul\":4700:4718   */\n  add\n    /* \"#utility.yul\":4687:4718   */\n  swap5\n  pop\n    /* \"#utility.yul\":4561:4565   */\n  0x20\n    /* \"#utility.yul\":4558:4559   */\n  dup2\n    /* \"#utility.yul\":4554:4566   */\n  add\n    /* \"#utility.yul\":4549:4566   */\n  swap1\n  pop\n    /* \"#utility.yul\":4524:4732   */\n  jump(tag_89)\ntag_91:\n    /* \"#utility.yul\":4760:4766   */\n  dup7\n    /* \"#utility.yul\":4751:4758   */\n  dup4\n    /* \"#utility.yul\":4748:4767   */\n  lt\n    /* \"#utility.yul\":4745:4924   */\n  iszero\n  tag_92\n  jumpi\n    /* \"#utility.yul\":4818:4827   */\n  dup5\n    /* \"#utility.yul\":4813:4816   */\n  dup10\n    /* \"#utility.yul\":4809:4828   */\n  add\n    /* \"#utility.yul\":4803:4829   */\n  mload\n    /* \"#utility.yul\":4861:4909   */\n  tag_93\n    /* \"#utility.yul\":4903:4907   */\n  0x1f\n    /* \"#utility.yul\":4895:4901   */\n  dup10\n    /* \"#utility.yul\":4891:4908   */\n  and\n    /* \"#utility.yul\":4880:4889   */\n  dup3\n    /* \"#utility.yul\":4861:4909   */\n  tag_27\n  jump\t// in\ntag_93:\n    /* \"#utility.yul\":4853:4859   */\n  dup4\n    /* \"#utility.yul\":4846:4910   */\n  sstore\n    /* \"#utility.yul\":4768:4924   */\n  pop\n    /* \"#utility.yul\":4745:4924   */\ntag_92:\n    /* \"#utility.yul\":4970:4971   */\n  0x01\n    /* \"#utility.yul\":4966:4967   */\n  0x02\n    /* \"#utility.yul\":4958:4964   */\n  dup9\n    /* \"#utility.yul\":4954:4968   */\n  mul\n    /* \"#utility.yul\":4950:4972   */\n  add\n    /* \"#utility.yul\":4944:4948   */\n  dup9\n    /* \"#utility.yul\":4937:4973   */\n  sstore\n    /* \"#utility.yul\":4372:4983   */\n  pop\n  pop\n  pop\n    /* \"#utility.yul\":4335:5222   */\ntag_84:\n  pop\n    /* \"#utility.yul\":3925:5228   */\n  pop\n  pop\n  pop\n    /* \"#utility.yul\":3833:5228   */\n  pop\n  pop\n  jump\t// out\n    /* \"#utility.yul\":5234:5382   */\ntag_29:\n    /* \"#utility.yul\":5336:5347   */\n  0x00\n    /* \"#utility.yul\":5373:5376   */\n  dup2\n    /* \"#utility.yul\":5358:5376   */\n  swap1\n  pop\n    /* \"#utility.yul\":5234:5382   */\n  swap3\n  swap2\n  pop\n  pop\n  jump\t// out\n    /* \"#utility.yul\":5388:5546   */\ntag_30:\n    /* \"#utility.yul\":5528:5538   */\n  0x4c6561726e696e67000000000000000000000000000000000000000000000000\n    /* \"#utility.yul\":5524:5525   */\n  0x00\n    /* \"#utility.yul\":5516:5522   */\n  dup3\n    /* \"#utility.yul\":5512:5526   */\n  add\n    /* \"#utility.yul\":5505:5539   */\n  mstore\n    /* \"#utility.yul\":5388:5546   */\n  pop\n  jump\t// out\n    /* \"#utility.yul\":5552:5952   */\ntag_31:\n    /* \"#utility.yul\":5712:5715   */\n  0x00\n    /* \"#utility.yul\":5733:5817   */\n  tag_97\n    /* \"#utility.yul\":5815:5816   */\n  0x08\n    /* \"#utility.yul\":5810:5813   */\n  dup4\n    /* \"#utility.yul\":5733:5817   */\n  tag_29\n  jump\t// in\ntag_97:\n    /* \"#utility.yul\":5726:5817   */\n  swap2\n  pop\n    /* \"#utility.yul\":5826:5919   */\n  tag_98\n    /* \"#utility.yul\":5915:5918   */\n  dup3\n    /* \"#utility.yul\":5826:5919   */\n  tag_30\n  jump\t// in\ntag_98:\n    /* \"#utility.yul\":5944:5945   */\n  0x08\n    /* \"#utility.yul\":5939:5942   */\n  dup3\n    /* \"#utility.yul\":5935:5946   */\n  add\n    /* \"#utility.yul\":5928:5946   */\n  swap1\n  pop\n    /* \"#utility.yul\":5552:5952   */\n  swap2\n  swap1\n  pop\n  jump\t// out\n    /* \"#utility.yul\":5958:6339   */\ntag_4:\n    /* \"#utility.yul\":6143:6146   */\n  0x00\n    /* \"#utility.yul\":6165:6313   */\n  tag_100\n    /* \"#utility.yul\":6309:6312   */\n  dup3\n    /* \"#utility.yul\":6165:6313   */\n  tag_31\n  jump\t// in\ntag_100:\n    /* \"#utility.yul\":6158:6313   */\n  swap2\n  pop\n    /* \"#utility.yul\":6330:6333   */\n  dup2\n    /* \"#utility.yul\":6323:6333   */\n  swap1\n  pop\n    /* \"#utility.yul\":5958:6339   */\n  swap2\n  swap1\n  pop\n  jump\t// out\n    /* \"learning.sol\":60:4169  contract Learning {... */\ntag_8:\n  dataSize(sub_0)\n  dup1\n  dataOffset(sub_0)\n  0x00\n  codecopy\n  0x00\n  return\nstop\n\nsub_0: assembly {\n        /* \"learning.sol\":60:4169  contract Learning {... */\n      mstore(0x40, 0x80)\n      callvalue\n      dup1\n      iszero\n      tag_1\n      jumpi\n      revert(0x00, 0x00)\n    tag_1:\n      pop\n      jumpi(tag_2, lt(calldatasize, 0x04))\n      shr(0xe0, calldataload(0x00))\n      dup1\n      0x9beda1b2\n      gt\n      tag_16\n      jumpi\n      dup1\n      0xcc2961c4\n      gt\n      tag_17\n      jumpi\n      dup1\n      0xcc2961c4\n      eq\n      tag_12\n      jumpi\n      dup1\n      0xdf687982\n      eq\n      tag_13\n      jumpi\n      dup1\n      0xe2666777\n      eq\n      tag_14\n      jumpi\n      dup1\n      0xeb11813b\n      eq\n      tag_15\n      jumpi\n      jump(tag_2)\n    tag_17:\n      dup1\n      0x9beda1b2\n      eq\n      tag_9\n      jumpi\n      dup1\n      0xa19844c0\n      eq\n      tag_10\n      jumpi\n      dup1\n      0xb7e70487\n      eq\n      tag_11\n      jumpi\n      jump(tag_2)\n    tag_16:\n      dup1\n      0x0b256fe3\n      eq\n      tag_3\n      jumpi\n      dup1\n      0x3a756cec\n      eq\n      tag_4\n      jumpi\n      dup1\n      0x533cb974\n      eq\n      tag_5\n      jumpi\n      dup1\n      0x5cea126a\n      eq\n      tag_6\n      jumpi\n      dup1\n      0x66199e38\n      eq\n      tag_7\n      jumpi\n      dup1\n      0x8f32d59b\n      eq\n      tag_8\n      jumpi\n    tag_2:\n      revert(0x00, 0x00)\n        /* \"learning.sol\":3700:3817  function someFunctionOnlyAdultOwnerCanCall(int age) external ownerOnly adultOnly(age) {... */\n    tag_3:\n      tag_18\n      0x04\n      dup1\n      calldatasize\n      sub\n      dup2\n      add\n      swap1\n      tag_19\n      swap2\n      swap1\n      tag_20\n      jump\t// in\n    tag_19:\n      tag_21\n      jump\t// in\n    tag_18:\n      stop\n        /* \"learning.sol\":1350:1397  address public constant MY_ADDRESS = address(1) */\n    tag_4:\n      tag_22\n      tag_23\n      jump\t// in\n    tag_22:\n      mload(0x40)\n      tag_24\n      swap2\n      swap1\n      tag_25\n      jump\t// in\n    tag_24:\n      mload(0x40)\n      dup1\n      swap2\n      sub\n      swap1\n      return\n        /* \"learning.sol\":2513:2719  function revertExample(uint256 x) external pure{ // revert is used when you want to do something more than just revert... */\n    tag_5:\n      tag_26\n      0x04\n      dup1\n      calldatasize\n      sub\n      dup2\n      add\n      swap1\n      tag_27\n      swap2\n      swap1\n      tag_28\n      jump\t// in\n    tag_27:\n      tag_29\n      jump\t// in\n    tag_26:\n      stop\n        /* \"learning.sol\":2364:2505  function requireExample(uint256 x) external pure{... */\n    tag_6:\n      tag_30\n      0x04\n      dup1\n      calldatasize\n      sub\n      dup2\n      add\n      swap1\n      tag_31\n      swap2\n      swap1\n      tag_28\n      jump\t// in\n    tag_31:\n      tag_32\n      jump\t// in\n    tag_30:\n      stop\n        /* \"learning.sol\":2025:2220  function forLoopExample(uint256 x) external pure returns(uint256){... */\n    tag_7:\n      tag_33\n      0x04\n      dup1\n      calldatasize\n      sub\n      dup2\n      add\n      swap1\n      tag_34\n      swap2\n      swap1\n      tag_28\n      jump\t// in\n    tag_34:\n      tag_35\n      jump\t// in\n    tag_33:\n      mload(0x40)\n      tag_36\n      swap2\n      swap1\n      tag_37\n      jump\t// in\n    tag_36:\n      mload(0x40)\n      dup1\n      swap2\n      sub\n      swap1\n      return\n        /* \"learning.sol\":3290:3309  bool public isOwner */\n    tag_8:\n      tag_38\n      tag_39\n      jump\t// in\n    tag_38:\n      mload(0x40)\n      tag_40\n      swap2\n      swap1\n      tag_41\n      jump\t// in\n    tag_40:\n      mload(0x40)\n      dup1\n      swap2\n      sub\n      swap1\n      return\n        /* \"learning.sol\":1144:1290  function exampleView(uint256 x) external view returns(uint256){... */\n    tag_9:\n      tag_42\n      0x04\n      dup1\n      calldatasize\n      sub\n      dup2\n      add\n      swap1\n      tag_43\n      swap2\n      swap1\n      tag_28\n      jump\t// in\n    tag_43:\n      tag_44\n      jump\t// in\n    tag_42:\n      mload(0x40)\n      tag_45\n      swap2\n      swap1\n      tag_37\n      jump\t// in\n    tag_45:\n      mload(0x40)\n      dup1\n      swap2\n      sub\n      swap1\n      return\n        /* \"learning.sol\":3084:3226  function customErrorExample(int i) external view {... */\n    tag_10:\n      tag_46\n      0x04\n      dup1\n      calldatasize\n      sub\n      dup2\n      add\n      swap1\n      tag_47\n      swap2\n      swap1\n      tag_20\n      jump\t// in\n    tag_47:\n      tag_48\n      jump\t// in\n    tag_46:\n      stop\n        /* \"learning.sol\":1647:1886  function ifElseExample(uint256 x) external pure returns(uint256){... */\n    tag_11:\n      tag_49\n      0x04\n      dup1\n      calldatasize\n      sub\n      dup2\n      add\n      swap1\n      tag_50\n      swap2\n      swap1\n      tag_28\n      jump\t// in\n    tag_50:\n      tag_51\n      jump\t// in\n    tag_49:\n      mload(0x40)\n      tag_52\n      swap2\n      swap1\n      tag_37\n      jump\t// in\n    tag_52:\n      mload(0x40)\n      dup1\n      swap2\n      sub\n      swap1\n      return\n        /* \"learning.sol\":3454:3544  function someFunctionOnlyOwnerCanCall() external ownerOnly {... */\n    tag_12:\n      tag_53\n      tag_54\n      jump\t// in\n    tag_53:\n      stop\n        /* \"learning.sol\":1466:1505  address public MY_ADDRESS2 = address(2) */\n    tag_13:\n      tag_55\n      tag_56\n      jump\t// in\n    tag_55:\n      mload(0x40)\n      tag_57\n      swap2\n      swap1\n      tag_25\n      jump\t// in\n    tag_57:\n      mload(0x40)\n      dup1\n      swap2\n      sub\n      swap1\n      return\n        /* \"learning.sol\":622:724  function add(int8 x, int8 y) external pure returns(int8){ // pure function... */\n    tag_14:\n      tag_58\n      0x04\n      dup1\n      calldatasize\n      sub\n      dup2\n      add\n      swap1\n      tag_59\n      swap2\n      swap1\n      tag_60\n      jump\t// in\n    tag_59:\n      tag_61\n      jump\t// in\n    tag_58:\n      mload(0x40)\n      tag_62\n      swap2\n      swap1\n      tag_63\n      jump\t// in\n    tag_62:\n      mload(0x40)\n      dup1\n      swap2\n      sub\n      swap1\n      return\n        /* \"learning.sol\":2727:2951  function assertExample(uint256 x) external pure{... */\n    tag_15:\n      tag_64\n      0x04\n      dup1\n      calldatasize\n      sub\n      dup2\n      add\n      swap1\n      tag_65\n      swap2\n      swap1\n      tag_28\n      jump\t// in\n    tag_65:\n      tag_66\n      jump\t// in\n    tag_64:\n      stop\n        /* \"learning.sol\":3700:3817  function someFunctionOnlyAdultOwnerCanCall(int age) external ownerOnly adultOnly(age) {... */\n    tag_21:\n        /* \"learning.sol\":3354:3361  isOwner */\n      0x09\n      0x14\n      swap1\n      sload\n      swap1\n      0x0100\n      exp\n      swap1\n      div\n      0xff\n      and\n        /* \"learning.sol\":3346:3375  require(isOwner, \"Not owner\") */\n      tag_68\n      jumpi\n      mload(0x40)\n      0x08c379a000000000000000000000000000000000000000000000000000000000\n      dup2\n      mstore\n      0x04\n      add\n      tag_69\n      swap1\n      tag_70\n      jump\t// in\n    tag_69:\n      mload(0x40)\n      dup1\n      swap2\n      sub\n      swap1\n      revert\n    tag_68:\n        /* \"learning.sol\":3781:3784  age */\n      dup1\n        /* \"learning.sol\":3605:3607  18 */\n      0x12\n        /* \"learning.sol\":3598:3601  age */\n      dup2\n        /* \"learning.sol\":3598:3607  age >= 18 */\n      slt\n      iszero\n        /* \"learning.sol\":3590:3621  require(age >= 18, \"Not adult\") */\n      tag_72\n      jumpi\n      mload(0x40)\n      0x08c379a000000000000000000000000000000000000000000000000000000000\n      dup2\n      mstore\n      0x04\n      add\n      tag_73\n      swap1\n      tag_74\n      jump\t// in\n    tag_73:\n      mload(0x40)\n      dup1\n      swap2\n      sub\n      swap1\n      revert\n    tag_72:\n        /* \"learning.sol\":3386:3387  _ */\n      pop\n        /* \"learning.sol\":3700:3817  function someFunctionOnlyAdultOwnerCanCall(int age) external ownerOnly adultOnly(age) {... */\n      pop\n      jump\t// out\n        /* \"learning.sol\":1350:1397  address public constant MY_ADDRESS = address(1) */\n    tag_23:\n        /* \"learning.sol\":1395:1396  1 */\n      0x01\n        /* \"learning.sol\":1350:1397  address public constant MY_ADDRESS = address(1) */\n      dup2\n      jump\t// out\n        /* \"learning.sol\":2513:2719  function revertExample(uint256 x) external pure{ // revert is used when you want to do something more than just revert... */\n    tag_29:\n        /* \"learning.sol\":2647:2649  10 */\n      0x0a\n        /* \"learning.sol\":2644:2645  x */\n      dup2\n        /* \"learning.sol\":2644:2649  x<=10 */\n      gt\n        /* \"learning.sol\":2641:2712  if(x<=10){... */\n      tag_77\n      jumpi\n        /* \"learning.sol\":2665:2700  revert(\"x must be greater than 10\") */\n      mload(0x40)\n      0x08c379a000000000000000000000000000000000000000000000000000000000\n      dup2\n      mstore\n      0x04\n      add\n      tag_78\n      swap1\n      tag_79\n      jump\t// in\n    tag_78:\n      mload(0x40)\n      dup1\n      swap2\n      sub\n      swap1\n      revert\n        /* \"learning.sol\":2641:2712  if(x<=10){... */\n    tag_77:\n        /* \"learning.sol\":2513:2719  function revertExample(uint256 x) external pure{ // revert is used when you want to do something more than just revert... */\n      pop\n      jump\t// out\n        /* \"learning.sol\":2364:2505  function requireExample(uint256 x) external pure{... */\n    tag_32:\n        /* \"learning.sol\":2433:2435  10 */\n      0x0a\n        /* \"learning.sol\":2431:2432  x */\n      dup2\n        /* \"learning.sol\":2431:2435  x>10 */\n      gt\n        /* \"learning.sol\":2423:2465  require(x>10, \"x must be greater than 10\") */\n      tag_81\n      jumpi\n      mload(0x40)\n      0x08c379a000000000000000000000000000000000000000000000000000000000\n      dup2\n      mstore\n      0x04\n      add\n      tag_82\n      swap1\n      tag_79\n      jump\t// in\n    tag_82:\n      mload(0x40)\n      dup1\n      swap2\n      sub\n      swap1\n      revert\n    tag_81:\n        /* \"learning.sol\":2364:2505  function requireExample(uint256 x) external pure{... */\n      pop\n      jump\t// out\n        /* \"learning.sol\":2025:2220  function forLoopExample(uint256 x) external pure returns(uint256){... */\n    tag_35:\n        /* \"learning.sol\":2082:2089  uint256 */\n      0x00\n        /* \"learning.sol\":2101:2112  uint256 sum */\n      0x00\n        /* \"learning.sol\":2115:2116  0 */\n      0x00\n        /* \"learning.sol\":2101:2116  uint256 sum = 0 */\n      swap1\n      pop\n        /* \"learning.sol\":2131:2140  uint256 i */\n      0x00\n        /* \"learning.sol\":2143:2144  0 */\n      0x00\n        /* \"learning.sol\":2131:2144  uint256 i = 0 */\n      swap1\n      pop\n        /* \"learning.sol\":2127:2192  for(uint256 i = 0; i < x; i++){... */\n    tag_84:\n        /* \"learning.sol\":2150:2151  x */\n      dup4\n        /* \"learning.sol\":2146:2147  i */\n      dup2\n        /* \"learning.sol\":2146:2151  i < x */\n      lt\n        /* \"learning.sol\":2127:2192  for(uint256 i = 0; i < x; i++){... */\n      iszero\n      tag_85\n      jumpi\n        /* \"learning.sol\":2179:2180  i */\n      dup1\n        /* \"learning.sol\":2172:2180  sum += i */\n      dup3\n      tag_87\n      swap2\n      swap1\n      tag_88\n      jump\t// in\n    tag_87:\n      swap2\n      pop\n        /* \"learning.sol\":2153:2156  i++ */\n      dup1\n      dup1\n      0x01\n      add\n      swap2\n      pop\n      pop\n        /* \"learning.sol\":2127:2192  for(uint256 i = 0; i < x; i++){... */\n      jump(tag_84)\n    tag_85:\n      pop\n        /* \"learning.sol\":2209:2212  sum */\n      dup1\n        /* \"learning.sol\":2202:2212  return sum */\n      swap2\n      pop\n      pop\n        /* \"learning.sol\":2025:2220  function forLoopExample(uint256 x) external pure returns(uint256){... */\n      swap2\n      swap1\n      pop\n      jump\t// out\n        /* \"learning.sol\":3290:3309  bool public isOwner */\n    tag_39:\n      0x09\n      0x14\n      swap1\n      sload\n      swap1\n      0x0100\n      exp\n      swap1\n      div\n      0xff\n      and\n      dup2\n      jump\t// out\n        /* \"learning.sol\":1144:1290  function exampleView(uint256 x) external view returns(uint256){... */\n    tag_44:\n        /* \"learning.sol\":1198:1205  uint256 */\n      0x00\n        /* \"learning.sol\":1228:1229  a */\n      sload(0x00)\n        /* \"learning.sol\":1224:1225  x */\n      dup3\n        /* \"learning.sol\":1224:1229  x + a */\n      tag_90\n      swap2\n      swap1\n      tag_88\n      jump\t// in\n    tag_90:\n        /* \"learning.sol\":1217:1229  return x + a */\n      swap1\n      pop\n        /* \"learning.sol\":1144:1290  function exampleView(uint256 x) external view returns(uint256){... */\n      swap2\n      swap1\n      pop\n      jump\t// out\n        /* \"learning.sol\":3084:3226  function customErrorExample(int i) external view {... */\n    tag_48:\n        /* \"learning.sol\":3151:3153  10 */\n      0x0a\n        /* \"learning.sol\":3147:3148  i */\n      dup2\n        /* \"learning.sol\":3147:3153  i < 10 */\n      slt\n        /* \"learning.sol\":3144:3189  if(i < 10) revert Unauthorized(msg.sender, i) */\n      iszero\n      tag_92\n      jumpi\n        /* \"learning.sol\":3175:3185  msg.sender */\n      caller\n        /* \"learning.sol\":3187:3188  i */\n      dup2\n        /* \"learning.sol\":3162:3189  Unauthorized(msg.sender, i) */\n      mload(0x40)\n      0x107ed84e00000000000000000000000000000000000000000000000000000000\n      dup2\n      mstore\n      0x04\n      add\n      tag_93\n      swap3\n      swap2\n      swap1\n      tag_94\n      jump\t// in\n    tag_93:\n      mload(0x40)\n      dup1\n      swap2\n      sub\n      swap1\n      revert\n        /* \"learning.sol\":3144:3189  if(i < 10) revert Unauthorized(msg.sender, i) */\n    tag_92:\n        /* \"learning.sol\":3084:3226  function customErrorExample(int i) external view {... */\n      pop\n      jump\t// out\n        /* \"learning.sol\":1647:1886  function ifElseExample(uint256 x) external pure returns(uint256){... */\n    tag_51:\n        /* \"learning.sol\":1703:1710  uint256 */\n      0x00\n        /* \"learning.sol\":1727:1729  10 */\n      0x0a\n        /* \"learning.sol\":1725:1726  x */\n      dup3\n        /* \"learning.sol\":1725:1729  x<10 */\n      lt\n        /* \"learning.sol\":1722:1804  if(x<10){... */\n      iszero\n      tag_96\n      jumpi\n        /* \"learning.sol\":1752:1753  0 */\n      0x00\n        /* \"learning.sol\":1745:1753  return 0 */\n      swap1\n      pop\n      jump(tag_95)\n        /* \"learning.sol\":1722:1804  if(x<10){... */\n    tag_96:\n        /* \"learning.sol\":1791:1792  1 */\n      0x01\n        /* \"learning.sol\":1784:1792  return 1 */\n      swap1\n      pop\n        /* \"learning.sol\":1647:1886  function ifElseExample(uint256 x) external pure returns(uint256){... */\n    tag_95:\n      swap2\n      swap1\n      pop\n      jump\t// out\n        /* \"learning.sol\":3454:3544  function someFunctionOnlyOwnerCanCall() external ownerOnly {... */\n    tag_54:\n        /* \"learning.sol\":3354:3361  isOwner */\n      0x09\n      0x14\n      swap1\n      sload\n      swap1\n      0x0100\n      exp\n      swap1\n      div\n      0xff\n      and\n        /* \"learning.sol\":3346:3375  require(isOwner, \"Not owner\") */\n      tag_99\n      jumpi\n      mload(0x40)\n      0x08c379a000000000000000000000000000000000000000000000000000000000\n      dup2\n      mstore\n      0x04\n      add\n      tag_100\n      swap1\n      tag_70\n      jump\t// in\n    tag_100:\n      mload(0x40)\n      dup1\n      swap2\n      sub\n      swap1\n      revert\n    tag_99:\n        /* \"learning.sol\":3454:3544  function someFunctionOnlyOwnerCanCall() external ownerOnly {... */\n      jump\t// out\n        /* \"learning.sol\":1466:1505  address public MY_ADDRESS2 = address(2) */\n    tag_56:\n      0x09\n      0x00\n      swap1\n      sload\n      swap1\n      0x0100\n      exp\n      swap1\n      div\n      0xffffffffffffffffffffffffffffffffffffffff\n      and\n      dup2\n      jump\t// out\n        /* \"learning.sol\":622:724  function add(int8 x, int8 y) external pure returns(int8){ // pure function... */\n    tag_61:\n        /* \"learning.sol\":673:677  int8 */\n      0x00\n        /* \"learning.sol\":715:716  y */\n      dup2\n        /* \"learning.sol\":713:714  x */\n      dup4\n        /* \"learning.sol\":713:716  x+y */\n      tag_103\n      swap2\n      swap1\n      tag_104\n      jump\t// in\n    tag_103:\n        /* \"learning.sol\":706:716  return x+y */\n      swap1\n      pop\n        /* \"learning.sol\":622:724  function add(int8 x, int8 y) external pure returns(int8){ // pure function... */\n      swap3\n      swap2\n      pop\n      pop\n      jump\t// out\n        /* \"learning.sol\":2727:2951  function assertExample(uint256 x) external pure{... */\n    tag_66:\n        /* \"learning.sol\":2794:2796  10 */\n      0x0a\n        /* \"learning.sol\":2792:2793  x */\n      dup2\n        /* \"learning.sol\":2792:2796  x>10 */\n      gt\n        /* \"learning.sol\":2785:2797  assert(x>10) */\n      tag_106\n      jumpi\n      tag_107\n      tag_108\n      jump\t// in\n    tag_107:\n    tag_106:\n        /* \"learning.sol\":2727:2951  function assertExample(uint256 x) external pure{... */\n      pop\n      jump\t// out\n        /* \"#utility.yul\":88:205   */\n    tag_110:\n        /* \"#utility.yul\":197:198   */\n      0x00\n        /* \"#utility.yul\":194:195   */\n      0x00\n        /* \"#utility.yul\":187:199   */\n      revert\n        /* \"#utility.yul\":334:410   */\n    tag_112:\n        /* \"#utility.yul\":370:377   */\n      0x00\n        /* \"#utility.yul\":399:404   */\n      dup2\n        /* \"#utility.yul\":388:404   */\n      swap1\n      pop\n        /* \"#utility.yul\":334:410   */\n      swap2\n      swap1\n      pop\n      jump\t// out\n        /* \"#utility.yul\":416:536   */\n    tag_113:\n        /* \"#utility.yul\":488:511   */\n      tag_143\n        /* \"#utility.yul\":505:510   */\n      dup2\n        /* \"#utility.yul\":488:511   */\n      tag_112\n      jump\t// in\n    tag_143:\n        /* \"#utility.yul\":481:486   */\n      dup2\n        /* \"#utility.yul\":478:512   */\n      eq\n        /* \"#utility.yul\":468:530   */\n      tag_144\n      jumpi\n        /* \"#utility.yul\":526:527   */\n      0x00\n        /* \"#utility.yul\":523:524   */\n      0x00\n        /* \"#utility.yul\":516:528   */\n      revert\n        /* \"#utility.yul\":468:530   */\n    tag_144:\n        /* \"#utility.yul\":416:536   */\n      pop\n      jump\t// out\n        /* \"#utility.yul\":542:679   */\n    tag_114:\n        /* \"#utility.yul\":587:592   */\n      0x00\n        /* \"#utility.yul\":625:631   */\n      dup2\n        /* \"#utility.yul\":612:632   */\n      calldataload\n        /* \"#utility.yul\":603:632   */\n      swap1\n      pop\n        /* \"#utility.yul\":641:673   */\n      tag_146\n        /* \"#utility.yul\":667:672   */\n      dup2\n        /* \"#utility.yul\":641:673   */\n      tag_113\n      jump\t// in\n    tag_146:\n        /* \"#utility.yul\":542:679   */\n      swap3\n      swap2\n      pop\n      pop\n      jump\t// out\n        /* \"#utility.yul\":685:1012   */\n    tag_20:\n        /* \"#utility.yul\":743:749   */\n      0x00\n        /* \"#utility.yul\":792:794   */\n      0x20\n        /* \"#utility.yul\":780:789   */\n      dup3\n        /* \"#utility.yul\":771:778   */\n      dup5\n        /* \"#utility.yul\":767:790   */\n      sub\n        /* \"#utility.yul\":763:795   */\n      slt\n        /* \"#utility.yul\":760:879   */\n      iszero\n      tag_148\n      jumpi\n        /* \"#utility.yul\":798:877   */\n      tag_149\n      tag_110\n      jump\t// in\n    tag_149:\n        /* \"#utility.yul\":760:879   */\n    tag_148:\n        /* \"#utility.yul\":918:919   */\n      0x00\n        /* \"#utility.yul\":943:995   */\n      tag_150\n        /* \"#utility.yul\":987:994   */\n      dup5\n        /* \"#utility.yul\":978:984   */\n      dup3\n        /* \"#utility.yul\":967:976   */\n      dup6\n        /* \"#utility.yul\":963:985   */\n      add\n        /* \"#utility.yul\":943:995   */\n      tag_114\n      jump\t// in\n    tag_150:\n        /* \"#utility.yul\":933:995   */\n      swap2\n      pop\n        /* \"#utility.yul\":889:1005   */\n      pop\n        /* \"#utility.yul\":685:1012   */\n      swap3\n      swap2\n      pop\n      pop\n      jump\t// out\n        /* \"#utility.yul\":1018:1144   */\n    tag_115:\n        /* \"#utility.yul\":1055:1062   */\n      0x00\n        /* \"#utility.yul\":1095:1137   */\n      0xffffffffffffffffffffffffffffffffffffffff\n        /* \"#utility.yul\":1088:1093   */\n      dup3\n        /* \"#utility.yul\":1084:1138   */\n      and\n        /* \"#utility.yul\":1073:1138   */\n      swap1\n      pop\n        /* \"#utility.yul\":1018:1144   */\n      swap2\n      swap1\n      pop\n      jump\t// out\n        /* \"#utility.yul\":1150:1246   */\n    tag_116:\n        /* \"#utility.yul\":1187:1194   */\n      0x00\n        /* \"#utility.yul\":1216:1240   */\n      tag_153\n        /* \"#utility.yul\":1234:1239   */\n      dup3\n        /* \"#utility.yul\":1216:1240   */\n      tag_115\n      jump\t// in\n    tag_153:\n        /* \"#utility.yul\":1205:1240   */\n      swap1\n      pop\n        /* \"#utility.yul\":1150:1246   */\n      swap2\n      swap1\n      pop\n      jump\t// out\n        /* \"#utility.yul\":1252:1370   */\n    tag_117:\n        /* \"#utility.yul\":1339:1363   */\n      tag_155\n        /* \"#utility.yul\":1357:1362   */\n      dup2\n        /* \"#utility.yul\":1339:1363   */\n      tag_116\n      jump\t// in\n    tag_155:\n        /* \"#utility.yul\":1334:1337   */\n      dup3\n        /* \"#utility.yul\":1327:1364   */\n      mstore\n        /* \"#utility.yul\":1252:1370   */\n      pop\n      pop\n      jump\t// out\n        /* \"#utility.yul\":1376:1598   */\n    tag_25:\n        /* \"#utility.yul\":1469:1473   */\n      0x00\n        /* \"#utility.yul\":1507:1509   */\n      0x20\n        /* \"#utility.yul\":1496:1505   */\n      dup3\n        /* \"#utility.yul\":1492:1510   */\n      add\n        /* \"#utility.yul\":1484:1510   */\n      swap1\n      pop\n        /* \"#utility.yul\":1520:1591   */\n      tag_157\n        /* \"#utility.yul\":1588:1589   */\n      0x00\n        /* \"#utility.yul\":1577:1586   */\n      dup4\n        /* \"#utility.yul\":1573:1590   */\n      add\n        /* \"#utility.yul\":1564:1570   */\n      dup5\n        /* \"#utility.yul\":1520:1591   */\n      tag_117\n      jump\t// in\n    tag_157:\n        /* \"#utility.yul\":1376:1598   */\n      swap3\n      swap2\n      pop\n      pop\n      jump\t// out\n        /* \"#utility.yul\":1604:1681   */\n    tag_118:\n        /* \"#utility.yul\":1641:1648   */\n      0x00\n        /* \"#utility.yul\":1670:1675   */\n      dup2\n        /* \"#utility.yul\":1659:1675   */\n      swap1\n      pop\n        /* \"#utility.yul\":1604:1681   */\n      swap2\n      swap1\n      pop\n      jump\t// out\n        /* \"#utility.yul\":1687:1809   */\n    tag_119:\n        /* \"#utility.yul\":1760:1784   */\n      tag_160\n        /* \"#utility.yul\":1778:1783   */\n      dup2\n        /* \"#utility.yul\":1760:1784   */\n      tag_118\n      jump\t// in\n    tag_160:\n        /* \"#utility.yul\":1753:1758   */\n      dup2\n        /* \"#utility.yul\":1750:1785   */\n      eq\n        /* \"#utility.yul\":1740:1803   */\n      tag_161\n      jumpi\n        /* \"#utility.yul\":1799:1800   */\n      0x00\n        /* \"#utility.yul\":1796:1797   */\n      0x00\n        /* \"#utility.yul\":1789:1801   */\n      revert\n        /* \"#utility.yul\":1740:1803   */\n    tag_161:\n        /* \"#utility.yul\":1687:1809   */\n      pop\n      jump\t// out\n        /* \"#utility.yul\":1815:1954   */\n    tag_120:\n        /* \"#utility.yul\":1861:1866   */\n      0x00\n        /* \"#utility.yul\":1899:1905   */\n      dup2\n        /* \"#utility.yul\":1886:1906   */\n      calldataload\n        /* \"#utility.yul\":1877:1906   */\n      swap1\n      pop\n        /* \"#utility.yul\":1915:1948   */\n      tag_163\n        /* \"#utility.yul\":1942:1947   */\n      dup2\n        /* \"#utility.yul\":1915:1948   */\n      tag_119\n      jump\t// in\n    tag_163:\n        /* \"#utility.yul\":1815:1954   */\n      swap3\n      swap2\n      pop\n      pop\n      jump\t// out\n        /* \"#utility.yul\":1960:2289   */\n    tag_28:\n        /* \"#utility.yul\":2019:2025   */\n      0x00\n        /* \"#utility.yul\":2068:2070   */\n      0x20\n        /* \"#utility.yul\":2056:2065   */\n      dup3\n        /* \"#utility.yul\":2047:2054   */\n      dup5\n        /* \"#utility.yul\":2043:2066   */\n      sub\n        /* \"#utility.yul\":2039:2071   */\n      slt\n        /* \"#utility.yul\":2036:2155   */\n      iszero\n      tag_165\n      jumpi\n        /* \"#utility.yul\":2074:2153   */\n      tag_166\n      tag_110\n      jump\t// in\n    tag_166:\n        /* \"#utility.yul\":2036:2155   */\n    tag_165:\n        /* \"#utility.yul\":2194:2195   */\n      0x00\n        /* \"#utility.yul\":2219:2272   */\n      tag_167\n        /* \"#utility.yul\":2264:2271   */\n      dup5\n        /* \"#utility.yul\":2255:2261   */\n      dup3\n        /* \"#utility.yul\":2244:2253   */\n      dup6\n        /* \"#utility.yul\":2240:2262   */\n      add\n        /* \"#utility.yul\":2219:2272   */\n      tag_120\n      jump\t// in\n    tag_167:\n        /* \"#utility.yul\":2209:2272   */\n      swap2\n      pop\n        /* \"#utility.yul\":2165:2282   */\n      pop\n        /* \"#utility.yul\":1960:2289   */\n      swap3\n      swap2\n      pop\n      pop\n      jump\t// out\n        /* \"#utility.yul\":2295:2413   */\n    tag_121:\n        /* \"#utility.yul\":2382:2406   */\n      tag_169\n        /* \"#utility.yul\":2400:2405   */\n      dup2\n        /* \"#utility.yul\":2382:2406   */\n      tag_118\n      jump\t// in\n    tag_169:\n        /* \"#utility.yul\":2377:2380   */\n      dup3\n        /* \"#utility.yul\":2370:2407   */\n      mstore\n        /* \"#utility.yul\":2295:2413   */\n      pop\n      pop\n      jump\t// out\n        /* \"#utility.yul\":2419:2641   */\n    tag_37:\n        /* \"#utility.yul\":2512:2516   */\n      0x00\n        /* \"#utility.yul\":2550:2552   */\n      0x20\n        /* \"#utility.yul\":2539:2548   */\n      dup3\n        /* \"#utility.yul\":2535:2553   */\n      add\n        /* \"#utility.yul\":2527:2553   */\n      swap1\n      pop\n        /* \"#utility.yul\":2563:2634   */\n      tag_171\n        /* \"#utility.yul\":2631:2632   */\n      0x00\n        /* \"#utility.yul\":2620:2629   */\n      dup4\n        /* \"#utility.yul\":2616:2633   */\n      add\n        /* \"#utility.yul\":2607:2613   */\n      dup5\n        /* \"#utility.yul\":2563:2634   */\n      tag_121\n      jump\t// in\n    tag_171:\n        /* \"#utility.yul\":2419:2641   */\n      swap3\n      swap2\n      pop\n      pop\n      jump\t// out\n        /* \"#utility.yul\":2647:2737   */\n    tag_122:\n        /* \"#utility.yul\":2681:2688   */\n      0x00\n        /* \"#utility.yul\":2724:2729   */\n      dup2\n        /* \"#utility.yul\":2717:2730   */\n      iszero\n        /* \"#utility.yul\":2710:2731   */\n      iszero\n        /* \"#utility.yul\":2699:2731   */\n      swap1\n      pop\n        /* \"#utility.yul\":2647:2737   */\n      swap2\n      swap1\n      pop\n      jump\t// out\n        /* \"#utility.yul\":2743:2852   */\n    tag_123:\n        /* \"#utility.yul\":2824:2845   */\n      tag_174\n        /* \"#utility.yul\":2839:2844   */\n      dup2\n        /* \"#utility.yul\":2824:2845   */\n      tag_122\n      jump\t// in\n    tag_174:\n        /* \"#utility.yul\":2819:2822   */\n      dup3\n        /* \"#utility.yul\":2812:2846   */\n      mstore\n        /* \"#utility.yul\":2743:2852   */\n      pop\n      pop\n      jump\t// out\n        /* \"#utility.yul\":2858:3068   */\n    tag_41:\n        /* \"#utility.yul\":2945:2949   */\n      0x00\n        /* \"#utility.yul\":2983:2985   */\n      0x20\n        /* \"#utility.yul\":2972:2981   */\n      dup3\n        /* \"#utility.yul\":2968:2986   */\n      add\n        /* \"#utility.yul\":2960:2986   */\n      swap1\n      pop\n        /* \"#utility.yul\":2996:3061   */\n      tag_176\n        /* \"#utility.yul\":3058:3059   */\n      0x00\n        /* \"#utility.yul\":3047:3056   */\n      dup4\n        /* \"#utility.yul\":3043:3060   */\n      add\n        /* \"#utility.yul\":3034:3040   */\n      dup5\n        /* \"#utility.yul\":2996:3061   */\n      tag_123\n      jump\t// in\n    tag_176:\n        /* \"#utility.yul\":2858:3068   */\n      swap3\n      swap2\n      pop\n      pop\n      jump\t// out\n        /* \"#utility.yul\":3074:3163   */\n    tag_124:\n        /* \"#utility.yul\":3108:3115   */\n      0x00\n        /* \"#utility.yul\":3151:3156   */\n      dup2\n        /* \"#utility.yul\":3148:3149   */\n      0x00\n        /* \"#utility.yul\":3137:3157   */\n      signextend\n        /* \"#utility.yul\":3126:3157   */\n      swap1\n      pop\n        /* \"#utility.yul\":3074:3163   */\n      swap2\n      swap1\n      pop\n      jump\t// out\n        /* \"#utility.yul\":3169:3285   */\n    tag_125:\n        /* \"#utility.yul\":3239:3260   */\n      tag_179\n        /* \"#utility.yul\":3254:3259   */\n      dup2\n        /* \"#utility.yul\":3239:3260   */\n      tag_124\n      jump\t// in\n    tag_179:\n        /* \"#utility.yul\":3232:3237   */\n      dup2\n        /* \"#utility.yul\":3229:3261   */\n      eq\n        /* \"#utility.yul\":3219:3279   */\n      tag_180\n      jumpi\n        /* \"#utility.yul\":3275:3276   */\n      0x00\n        /* \"#utility.yul\":3272:3273   */\n      0x00\n        /* \"#utility.yul\":3265:3277   */\n      revert\n        /* \"#utility.yul\":3219:3279   */\n    tag_180:\n        /* \"#utility.yul\":3169:3285   */\n      pop\n      jump\t// out\n        /* \"#utility.yul\":3291:3424   */\n    tag_126:\n        /* \"#utility.yul\":3334:3339   */\n      0x00\n        /* \"#utility.yul\":3372:3378   */\n      dup2\n        /* \"#utility.yul\":3359:3379   */\n      calldataload\n        /* \"#utility.yul\":3350:3379   */\n      swap1\n      pop\n        /* \"#utility.yul\":3388:3418   */\n      tag_182\n        /* \"#utility.yul\":3412:3417   */\n      dup2\n        /* \"#utility.yul\":3388:3418   */\n      tag_125\n      jump\t// in\n    tag_182:\n        /* \"#utility.yul\":3291:3424   */\n      swap3\n      swap2\n      pop\n      pop\n      jump\t// out\n        /* \"#utility.yul\":3430:3892   */\n    tag_60:\n        /* \"#utility.yul\":3492:3498   */\n      0x00\n        /* \"#utility.yul\":3500:3506   */\n      0x00\n        /* \"#utility.yul\":3549:3551   */\n      0x40\n        /* \"#utility.yul\":3537:3546   */\n      dup4\n        /* \"#utility.yul\":3528:3535   */\n      dup6\n        /* \"#utility.yul\":3524:3547   */\n      sub\n        /* \"#utility.yul\":3520:3552   */\n      slt\n        /* \"#utility.yul\":3517:3636   */\n      iszero\n      tag_184\n      jumpi\n        /* \"#utility.yul\":3555:3634   */\n      tag_185\n      tag_110\n      jump\t// in\n    tag_185:\n        /* \"#utility.yul\":3517:3636   */\n    tag_184:\n        /* \"#utility.yul\":3675:3676   */\n      0x00\n        /* \"#utility.yul\":3700:3750   */\n      tag_186\n        /* \"#utility.yul\":3742:3749   */\n      dup6\n        /* \"#utility.yul\":3733:3739   */\n      dup3\n        /* \"#utility.yul\":3722:3731   */\n      dup7\n        /* \"#utility.yul\":3718:3740   */\n      add\n        /* \"#utility.yul\":3700:3750   */\n      tag_126\n      jump\t// in\n    tag_186:\n        /* \"#utility.yul\":3690:3750   */\n      swap3\n      pop\n        /* \"#utility.yul\":3646:3760   */\n      pop\n        /* \"#utility.yul\":3799:3801   */\n      0x20\n        /* \"#utility.yul\":3825:3875   */\n      tag_187\n        /* \"#utility.yul\":3867:3874   */\n      dup6\n        /* \"#utility.yul\":3858:3864   */\n      dup3\n        /* \"#utility.yul\":3847:3856   */\n      dup7\n        /* \"#utility.yul\":3843:3865   */\n      add\n        /* \"#utility.yul\":3825:3875   */\n      tag_126\n      jump\t// in\n    tag_187:\n        /* \"#utility.yul\":3815:3875   */\n      swap2\n      pop\n        /* \"#utility.yul\":3770:3885   */\n      pop\n        /* \"#utility.yul\":3430:3892   */\n      swap3\n      pop\n      swap3\n      swap1\n      pop\n      jump\t// out\n        /* \"#utility.yul\":3898:4007   */\n    tag_127:\n        /* \"#utility.yul\":3979:4000   */\n      tag_189\n        /* \"#utility.yul\":3994:3999   */\n      dup2\n        /* \"#utility.yul\":3979:4000   */\n      tag_124\n      jump\t// in\n    tag_189:\n        /* \"#utility.yul\":3974:3977   */\n      dup3\n        /* \"#utility.yul\":3967:4001   */\n      mstore\n        /* \"#utility.yul\":3898:4007   */\n      pop\n      pop\n      jump\t// out\n        /* \"#utility.yul\":4013:4223   */\n    tag_63:\n        /* \"#utility.yul\":4100:4104   */\n      0x00\n        /* \"#utility.yul\":4138:4140   */\n      0x20\n        /* \"#utility.yul\":4127:4136   */\n      dup3\n        /* \"#utility.yul\":4123:4141   */\n      add\n        /* \"#utility.yul\":4115:4141   */\n      swap1\n      pop\n        /* \"#utility.yul\":4151:4216   */\n      tag_191\n        /* \"#utility.yul\":4213:4214   */\n      0x00\n        /* \"#utility.yul\":4202:4211   */\n      dup4\n        /* \"#utility.yul\":4198:4215   */\n      add\n        /* \"#utility.yul\":4189:4195   */\n      dup5\n        /* \"#utility.yul\":4151:4216   */\n      tag_127\n      jump\t// in\n    tag_191:\n        /* \"#utility.yul\":4013:4223   */\n      swap3\n      swap2\n      pop\n      pop\n      jump\t// out\n        /* \"#utility.yul\":4229:4398   */\n    tag_128:\n        /* \"#utility.yul\":4313:4324   */\n      0x00\n        /* \"#utility.yul\":4347:4353   */\n      dup3\n        /* \"#utility.yul\":4342:4345   */\n      dup3\n        /* \"#utility.yul\":4335:4354   */\n      mstore\n        /* \"#utility.yul\":4387:4391   */\n      0x20\n        /* \"#utility.yul\":4382:4385   */\n      dup3\n        /* \"#utility.yul\":4378:4392   */\n      add\n        /* \"#utility.yul\":4363:4392   */\n      swap1\n      pop\n        /* \"#utility.yul\":4229:4398   */\n      swap3\n      swap2\n      pop\n      pop\n      jump\t// out\n        /* \"#utility.yul\":4404:4563   */\n    tag_129:\n        /* \"#utility.yul\":4544:4555   */\n      0x4e6f74206f776e65720000000000000000000000000000000000000000000000\n        /* \"#utility.yul\":4540:4541   */\n      0x00\n        /* \"#utility.yul\":4532:4538   */\n      dup3\n        /* \"#utility.yul\":4528:4542   */\n      add\n        /* \"#utility.yul\":4521:4556   */\n      mstore\n        /* \"#utility.yul\":4404:4563   */\n      pop\n      jump\t// out\n        /* \"#utility.yul\":4569:4934   */\n    tag_130:\n        /* \"#utility.yul\":4711:4714   */\n      0x00\n        /* \"#utility.yul\":4732:4798   */\n      tag_195\n        /* \"#utility.yul\":4796:4797   */\n      0x09\n        /* \"#utility.yul\":4791:4794   */\n      dup4\n        /* \"#utility.yul\":4732:4798   */\n      tag_128\n      jump\t// in\n    tag_195:\n        /* \"#utility.yul\":4725:4798   */\n      swap2\n      pop\n        /* \"#utility.yul\":4807:4900   */\n      tag_196\n        /* \"#utility.yul\":4896:4899   */\n      dup3\n        /* \"#utility.yul\":4807:4900   */\n      tag_129\n      jump\t// in\n    tag_196:\n        /* \"#utility.yul\":4925:4927   */\n      0x20\n        /* \"#utility.yul\":4920:4923   */\n      dup3\n        /* \"#utility.yul\":4916:4928   */\n      add\n        /* \"#utility.yul\":4909:4928   */\n      swap1\n      pop\n        /* \"#utility.yul\":4569:4934   */\n      swap2\n      swap1\n      pop\n      jump\t// out\n        /* \"#utility.yul\":4940:5359   */\n    tag_70:\n        /* \"#utility.yul\":5106:5110   */\n      0x00\n        /* \"#utility.yul\":5144:5146   */\n      0x20\n        /* \"#utility.yul\":5133:5142   */\n      dup3\n        /* \"#utility.yul\":5129:5147   */\n      add\n        /* \"#utility.yul\":5121:5147   */\n      swap1\n      pop\n        /* \"#utility.yul\":5193:5202   */\n      dup2\n        /* \"#utility.yul\":5187:5191   */\n      dup2\n        /* \"#utility.yul\":5183:5203   */\n      sub\n        /* \"#utility.yul\":5179:5180   */\n      0x00\n        /* \"#utility.yul\":5168:5177   */\n      dup4\n        /* \"#utility.yul\":5164:5181   */\n      add\n        /* \"#utility.yul\":5157:5204   */\n      mstore\n        /* \"#utility.yul\":5221:5352   */\n      tag_198\n        /* \"#utility.yul\":5347:5351   */\n      dup2\n        /* \"#utility.yul\":5221:5352   */\n      tag_130\n      jump\t// in\n    tag_198:\n        /* \"#utility.yul\":5213:5352   */\n      swap1\n      pop\n        /* \"#utility.yul\":4940:5359   */\n      swap2\n      swap1\n      pop\n      jump\t// out\n        /* \"#utility.yul\":5365:5524   */\n    tag_131:\n        /* \"#utility.yul\":5505:5516   */\n      0x4e6f74206164756c740000000000000000000000000000000000000000000000\n        /* \"#utility.yul\":5501:5502   */\n      0x00\n        /* \"#utility.yul\":5493:5499   */\n      dup3\n        /* \"#utility.yul\":5489:5503   */\n      add\n        /* \"#utility.yul\":5482:5517   */\n      mstore\n        /* \"#utility.yul\":5365:5524   */\n      pop\n      jump\t// out\n        /* \"#utility.yul\":5530:5895   */\n    tag_132:\n        /* \"#utility.yul\":5672:5675   */\n      0x00\n        /* \"#utility.yul\":5693:5759   */\n      tag_201\n        /* \"#utility.yul\":5757:5758   */\n      0x09\n        /* \"#utility.yul\":5752:5755   */\n      dup4\n        /* \"#utility.yul\":5693:5759   */\n      tag_128\n      jump\t// in\n    tag_201:\n        /* \"#utility.yul\":5686:5759   */\n      swap2\n      pop\n        /* \"#utility.yul\":5768:5861   */\n      tag_202\n        /* \"#utility.yul\":5857:5860   */\n      dup3\n        /* \"#utility.yul\":5768:5861   */\n      tag_131\n      jump\t// in\n    tag_202:\n        /* \"#utility.yul\":5886:5888   */\n      0x20\n        /* \"#utility.yul\":5881:5884   */\n      dup3\n        /* \"#utility.yul\":5877:5889   */\n      add\n        /* \"#utility.yul\":5870:5889   */\n      swap1\n      pop\n        /* \"#utility.yul\":5530:5895   */\n      swap2\n      swap1\n      pop\n      jump\t// out\n        /* \"#utility.yul\":5901:6320   */\n    tag_74:\n        /* \"#utility.yul\":6067:6071   */\n      0x00\n        /* \"#utility.yul\":6105:6107   */\n      0x20\n        /* \"#utility.yul\":6094:6103   */\n      dup3\n        /* \"#utility.yul\":6090:6108   */\n      add\n        /* \"#utility.yul\":6082:6108   */\n      swap1\n      pop\n        /* \"#utility.yul\":6154:6163   */\n      dup2\n        /* \"#utility.yul\":6148:6152   */\n      dup2\n        /* \"#utility.yul\":6144:6164   */\n      sub\n        /* \"#utility.yul\":6140:6141   */\n      0x00\n        /* \"#utility.yul\":6129:6138   */\n      dup4\n        /* \"#utility.yul\":6125:6142   */\n      add\n        /* \"#utility.yul\":6118:6165   */\n      mstore\n        /* \"#utility.yul\":6182:6313   */\n      tag_204\n        /* \"#utility.yul\":6308:6312   */\n      dup2\n        /* \"#utility.yul\":6182:6313   */\n      tag_132\n      jump\t// in\n    tag_204:\n        /* \"#utility.yul\":6174:6313   */\n      swap1\n      pop\n        /* \"#utility.yul\":5901:6320   */\n      swap2\n      swap1\n      pop\n      jump\t// out\n        /* \"#utility.yul\":6326:6501   */\n    tag_133:\n        /* \"#utility.yul\":6466:6493   */\n      0x78206d7573742062652067726561746572207468616e20313000000000000000\n        /* \"#utility.yul\":6462:6463   */\n      0x00\n        /* \"#utility.yul\":6454:6460   */\n      dup3\n        /* \"#utility.yul\":6450:6464   */\n      add\n        /* \"#utility.yul\":6443:6494   */\n      mstore\n        /* \"#utility.yul\":6326:6501   */\n      pop\n      jump\t// out\n        /* \"#utility.yul\":6507:6873   */\n    tag_134:\n        /* \"#utility.yul\":6649:6652   */\n      0x00\n        /* \"#utility.yul\":6670:6737   */\n      tag_207\n        /* \"#utility.yul\":6734:6736   */\n      0x19\n        /* \"#utility.yul\":6729:6732   */\n      dup4\n        /* \"#utility.yul\":6670:6737   */\n      tag_128\n      jump\t// in\n    tag_207:\n        /* \"#utility.yul\":6663:6737   */\n      swap2\n      pop\n        /* \"#utility.yul\":6746:6839   */\n      tag_208\n        /* \"#utility.yul\":6835:6838   */\n      dup3\n        /* \"#utility.yul\":6746:6839   */\n      tag_133\n      jump\t// in\n    tag_208:\n        /* \"#utility.yul\":6864:6866   */\n      0x20\n        /* \"#utility.yul\":6859:6862   */\n      dup3\n        /* \"#utility.yul\":6855:6867   */\n      add\n        /* \"#utility.yul\":6848:6867   */\n      swap1\n      pop\n        /* \"#utility.yul\":6507:6873   */\n      swap2\n      swap1\n      pop\n      jump\t// out\n        /* \"#utility.yul\":6879:7298   */\n    tag_79:\n        /* \"#utility.yul\":7045:7049   */\n      0x00\n        /* \"#utility.yul\":7083:7085   */\n      0x20\n        /* \"#utility.yul\":7072:7081   */\n      dup3\n        /* \"#utility.yul\":7068:7086   */\n      add\n        /* \"#utility.yul\":7060:7086   */\n      swap1\n      pop\n        /* \"#utility.yul\":7132:7141   */\n      dup2\n        /* \"#utility.yul\":7126:7130   */\n      dup2\n        /* \"#utility.yul\":7122:7142   */\n      sub\n        /* \"#utility.yul\":7118:7119   */\n      0x00\n        /* \"#utility.yul\":7107:7116   */\n      dup4\n        /* \"#utility.yul\":7103:7120   */\n      add\n        /* \"#utility.yul\":7096:7143   */\n      mstore\n        /* \"#utility.yul\":7160:7291   */\n      tag_210\n        /* \"#utility.yul\":7286:7290   */\n      dup2\n        /* \"#utility.yul\":7160:7291   */\n      tag_134\n      jump\t// in\n    tag_210:\n        /* \"#utility.yul\":7152:7291   */\n      swap1\n      pop\n        /* \"#utility.yul\":6879:7298   */\n      swap2\n      swap1\n      pop\n      jump\t// out\n        /* \"#utility.yul\":7304:7484   */\n    tag_135:\n        /* \"#utility.yul\":7352:7429   */\n      0x4e487b7100000000000000000000000000000000000000000000000000000000\n        /* \"#utility.yul\":7349:7350   */\n      0x00\n        /* \"#utility.yul\":7342:7430   */\n      mstore\n        /* \"#utility.yul\":7449:7453   */\n      0x11\n        /* \"#utility.yul\":7446:7447   */\n      0x04\n        /* \"#utility.yul\":7439:7454   */\n      mstore\n        /* \"#utility.yul\":7473:7477   */\n      0x24\n        /* \"#utility.yul\":7470:7471   */\n      0x00\n        /* \"#utility.yul\":7463:7478   */\n      revert\n        /* \"#utility.yul\":7490:7681   */\n    tag_88:\n        /* \"#utility.yul\":7530:7533   */\n      0x00\n        /* \"#utility.yul\":7549:7569   */\n      tag_213\n        /* \"#utility.yul\":7567:7568   */\n      dup3\n        /* \"#utility.yul\":7549:7569   */\n      tag_118\n      jump\t// in\n    tag_213:\n        /* \"#utility.yul\":7544:7569   */\n      swap2\n      pop\n        /* \"#utility.yul\":7583:7603   */\n      tag_214\n        /* \"#utility.yul\":7601:7602   */\n      dup4\n        /* \"#utility.yul\":7583:7603   */\n      tag_118\n      jump\t// in\n    tag_214:\n        /* \"#utility.yul\":7578:7603   */\n      swap3\n      pop\n        /* \"#utility.yul\":7626:7627   */\n      dup3\n        /* \"#utility.yul\":7623:7624   */\n      dup3\n        /* \"#utility.yul\":7619:7628   */\n      add\n        /* \"#utility.yul\":7612:7628   */\n      swap1\n      pop\n        /* \"#utility.yul\":7647:7650   */\n      dup1\n        /* \"#utility.yul\":7644:7645   */\n      dup3\n        /* \"#utility.yul\":7641:7651   */\n      gt\n        /* \"#utility.yul\":7638:7674   */\n      iszero\n      tag_215\n      jumpi\n        /* \"#utility.yul\":7654:7672   */\n      tag_216\n      tag_135\n      jump\t// in\n    tag_216:\n        /* \"#utility.yul\":7638:7674   */\n    tag_215:\n        /* \"#utility.yul\":7490:7681   */\n      swap3\n      swap2\n      pop\n      pop\n      jump\t// out\n        /* \"#utility.yul\":7687:7802   */\n    tag_136:\n        /* \"#utility.yul\":7772:7795   */\n      tag_218\n        /* \"#utility.yul\":7789:7794   */\n      dup2\n        /* \"#utility.yul\":7772:7795   */\n      tag_112\n      jump\t// in\n    tag_218:\n        /* \"#utility.yul\":7767:7770   */\n      dup3\n        /* \"#utility.yul\":7760:7796   */\n      mstore\n        /* \"#utility.yul\":7687:7802   */\n      pop\n      pop\n      jump\t// out\n        /* \"#utility.yul\":7808:8136   */\n    tag_94:\n        /* \"#utility.yul\":7927:7931   */\n      0x00\n        /* \"#utility.yul\":7965:7967   */\n      0x40\n        /* \"#utility.yul\":7954:7963   */\n      dup3\n        /* \"#utility.yul\":7950:7968   */\n      add\n        /* \"#utility.yul\":7942:7968   */\n      swap1\n      pop\n        /* \"#utility.yul\":7978:8049   */\n      tag_220\n        /* \"#utility.yul\":8046:8047   */\n      0x00\n        /* \"#utility.yul\":8035:8044   */\n      dup4\n        /* \"#utility.yul\":8031:8048   */\n      add\n        /* \"#utility.yul\":8022:8028   */\n      dup6\n        /* \"#utility.yul\":7978:8049   */\n      tag_117\n      jump\t// in\n    tag_220:\n        /* \"#utility.yul\":8059:8129   */\n      tag_221\n        /* \"#utility.yul\":8125:8127   */\n      0x20\n        /* \"#utility.yul\":8114:8123   */\n      dup4\n        /* \"#utility.yul\":8110:8128   */\n      add\n        /* \"#utility.yul\":8101:8107   */\n      dup5\n        /* \"#utility.yul\":8059:8129   */\n      tag_136\n      jump\t// in\n    tag_221:\n        /* \"#utility.yul\":7808:8136   */\n      swap4\n      swap3\n      pop\n      pop\n      pop\n      jump\t// out\n        /* \"#utility.yul\":8142:8444   */\n    tag_104:\n        /* \"#utility.yul\":8179:8182   */\n      0x00\n        /* \"#utility.yul\":8198:8215   */\n      tag_223\n        /* \"#utility.yul\":8213:8214   */\n      dup3\n        /* \"#utility.yul\":8198:8215   */\n      tag_124\n      jump\t// in\n    tag_223:\n        /* \"#utility.yul\":8193:8215   */\n      swap2\n      pop\n        /* \"#utility.yul\":8229:8246   */\n      tag_224\n        /* \"#utility.yul\":8244:8245   */\n      dup4\n        /* \"#utility.yul\":8229:8246   */\n      tag_124\n      jump\t// in\n    tag_224:\n        /* \"#utility.yul\":8224:8246   */\n      swap3\n      pop\n        /* \"#utility.yul\":8269:8270   */\n      dup3\n        /* \"#utility.yul\":8266:8267   */\n      dup3\n        /* \"#utility.yul\":8262:8271   */\n      add\n        /* \"#utility.yul\":8255:8271   */\n      swap1\n      pop\n        /* \"#utility.yul\":8337:8403   */\n      0xffffffffffffffffffffffffffffffffffffffffffffffffffffffffffffff80\n        /* \"#utility.yul\":8332:8335   */\n      dup2\n        /* \"#utility.yul\":8328:8404   */\n      slt\n        /* \"#utility.yul\":8309:8313   */\n      0x7f\n        /* \"#utility.yul\":8304:8307   */\n      dup3\n        /* \"#utility.yul\":8300:8314   */\n      sgt\n        /* \"#utility.yul\":8284:8414   */\n      or\n        /* \"#utility.yul\":8281:8437   */\n      iszero\n      tag_225\n      jumpi\n        /* \"#utility.yul\":8417:8435   */\n      tag_226\n      tag_135\n      jump\t// in\n    tag_226:\n        /* \"#utility.yul\":8281:8437   */\n    tag_225:\n        /* \"#utility.yul\":8142:8444   */\n      swap3\n      swap2\n      pop\n      pop\n      jump\t// out\n        /* \"#utility.yul\":8450:8630   */\n    tag_108:\n        /* \"#utility.yul\":8498:8575   */\n      0x4e487b7100000000000000000000000000000000000000000000000000000000\n        /* \"#utility.yul\":8495:8496   */\n      0x00\n        /* \"#utility.yul\":8488:8576   */\n      mstore\n        /* \"#utility.yul\":8595:8599   */\n      0x01\n        /* \"#utility.yul\":8592:8593   */\n      0x04\n        /* \"#utility.yul\":8585:8600   */\n      mstore\n        /* \"#utility.yul\":8619:8623   */\n      0x24\n        /* \"#utility.yul\":8616:8617   */\n      0x00\n        /* \"#utility.yul\":8609:8624   */\n      revert\n\n    auxdata: 0xa26469706673582212204c7e4a7ddf775ff575f398ecb374f298becf7f50d926221cc8ac636d237752f264736f6c634300081e0033\n}\n",
				"bytecode": {
					"linkReferences": {},
					"object": "608060405260015f557fffffffffffffffffffffffffffffffffffffffffffffffffffffffffffffffff600155600160025f6101000a81548173ffffffffffffffffffffffffffffffffffffffff021916908373ffffffffffffffffffffffffffffffffffffffff1602179055506001600260146101000a81548160ff0219169083151502179055506040518060400160405280600881526020017f4c6561726e696e67000000000000000000000000000000000000000000000000815250600390816100cc91906103eb565b506040516020016100dc9061050e565b604051602081830303815290604052805190602001206004553360055f6101000a81548173ffffffffffffffffffffffffffffffffffffffff021916908373ffffffffffffffffffffffffffffffffffffffff16021790555043600655426007555a600855600260095f6101000a81548173ffffffffffffffffffffffffffffffffffffffff021916908373ffffffffffffffffffffffffffffffffffffffff16021790555034801561018d575f5ffd5b506001600960146101000a81548160ff021916908315150217905550610522565b5f81519050919050565b7f4e487b71000000000000000000000000000000000000000000000000000000005f52604160045260245ffd5b7f4e487b71000000000000000000000000000000000000000000000000000000005f52602260045260245ffd5b5f600282049050600182168061022957607f821691505b60208210810361023c5761023b6101e5565b5b50919050565b5f819050815f5260205f209050919050565b5f6020601f8301049050919050565b5f82821b905092915050565b5f6008830261029e7fffffffffffffffffffffffffffffffffffffffffffffffffffffffffffffffff82610263565b6102a88683610263565b95508019841693508086168417925050509392505050565b5f819050919050565b5f819050919050565b5f6102ec6102e76102e2846102c0565b6102c9565b6102c0565b9050919050565b5f819050919050565b610305836102d2565b610319610311826102f3565b84845461026f565b825550505050565b5f5f905090565b610330610321565b61033b8184846102fc565b505050565b5b8181101561035e576103535f82610328565b600181019050610341565b5050565b601f8211156103a35761037481610242565b61037d84610254565b8101602085101561038c578190505b6103a061039885610254565b830182610340565b50505b505050565b5f82821c905092915050565b5f6103c35f19846008026103a8565b1980831691505092915050565b5f6103db83836103b4565b9150826002028217905092915050565b6103f4826101ae565b67ffffffffffffffff81111561040d5761040c6101b8565b5b6104178254610212565b610422828285610362565b5f60209050601f831160018114610453575f8415610441578287015190505b61044b85826103d0565b8655506104b2565b601f19841661046186610242565b5f5b8281101561048857848901518255600182019150602085019450602081019050610463565b868310156104a557848901516104a1601f8916826103b4565b8355505b6001600288020188555050505b505050505050565b5f81905092915050565b7f4c6561726e696e670000000000000000000000000000000000000000000000005f82015250565b5f6104f86008836104ba565b9150610503826104c4565b600882019050919050565b5f610518826104ec565b9150819050919050565b6109b68061052f5f395ff3fe608060405234801561000f575f5ffd5b50600436106100cd575f3560e01c80639beda1b21161008a578063cc2961c411610064578063cc2961c41461020d578063df68798214610217578063e266677714610235578063eb11813b14610265576100cd565b80639beda1b214610191578063a19844c0146101c1578063b7e70487146101dd576100cd565b80630b256fe3146100d15780633a756cec146100ed578063533cb9741461010b5780635cea126a1461012757806366199e38146101435780638f32d59b14610173575b5f5ffd5b6100eb60048036038101906100e69190610546565b610281565b005b6100f5610319565b60405161010291906105b0565b60405180910390f35b610125600480360381019061012091906105fc565b61031e565b005b610141600480360381019061013c91906105fc565b610364565b005b61015d600480360381019061015891906105fc565b6103aa565b60405161016a9190610636565b60405180910390f35b61017b6103e1565b6040516101889190610669565b60405180910390f35b6101ab60048036038101906101a691906105fc565b6103f4565b6040516101b89190610636565b60405180910390f35b6101db60048036038101906101d69190610546565b610409565b005b6101f760048036038101906101f291906105fc565b610454565b6040516102049190610636565b60405180910390f35b610215610470565b005b61021f6104c1565b60405161022c91906105b0565b60405180910390f35b61024f600480360381019061024a91906106b7565b6104e6565b60405161025c9190610704565b60405180910390f35b61027f600480360381019061027a91906105fc565b6104fb565b005b600960149054906101000a900460ff166102d0576040517f08c379a00000000000000000000000000000000000000000000000000000000081526004016102c790610777565b60405180910390fd5b806012811215610315576040517f08c379a000000000000000000000000000000000000000000000000000000000815260040161030c906107df565b60405180910390fd5b5050565b600181565b600a8111610361576040517f08c379a000000000000000000000000000000000000000000000000000000000815260040161035890610847565b60405180910390fd5b50565b600a81116103a7576040517f08c379a000000000000000000000000000000000000000000000000000000000815260040161039e90610847565b60405180910390fd5b50565b5f5f5f90505f5f90505b838110156103d75780826103c89190610892565b915080806001019150506103b4565b5080915050919050565b600960149054906101000a900460ff1681565b5f5f54826104029190610892565b9050919050565b600a8112156104515733816040517f107ed84e0000000000000000000000000000000000000000000000000000000081526004016104489291906108d4565b60405180910390fd5b50565b5f600a821015610466575f905061046b565b600190505b919050565b600960149054906101000a900460ff166104bf576040517f08c379a00000000000000000000000000000000000000000000000000000000081526004016104b690610777565b60405180910390fd5b565b60095f9054906101000a900473ffffffffffffffffffffffffffffffffffffffff1681565b5f81836104f391906108fb565b905092915050565b600a811161050c5761050b610953565b5b50565b5f5ffd5b5f819050919050565b61052581610513565b811461052f575f5ffd5b50565b5f813590506105408161051c565b92915050565b5f6020828403121561055b5761055a61050f565b5b5f61056884828501610532565b91505092915050565b5f73ffffffffffffffffffffffffffffffffffffffff82169050919050565b5f61059a82610571565b9050919050565b6105aa81610590565b82525050565b5f6020820190506105c35f8301846105a1565b92915050565b5f819050919050565b6105db816105c9565b81146105e5575f5ffd5b50565b5f813590506105f6816105d2565b92915050565b5f602082840312156106115761061061050f565b5b5f61061e848285016105e8565b91505092915050565b610630816105c9565b82525050565b5f6020820190506106495f830184610627565b92915050565b5f8115159050919050565b6106638161064f565b82525050565b5f60208201905061067c5f83018461065a565b92915050565b5f815f0b9050919050565b61069681610682565b81146106a0575f5ffd5b50565b5f813590506106b18161068d565b92915050565b5f5f604083850312156106cd576106cc61050f565b5b5f6106da858286016106a3565b92505060206106eb858286016106a3565b9150509250929050565b6106fe81610682565b82525050565b5f6020820190506107175f8301846106f5565b92915050565b5f82825260208201905092915050565b7f4e6f74206f776e657200000000000000000000000000000000000000000000005f82015250565b5f61076160098361071d565b915061076c8261072d565b602082019050919050565b5f6020820190508181035f83015261078e81610755565b9050919050565b7f4e6f74206164756c7400000000000000000000000000000000000000000000005f82015250565b5f6107c960098361071d565b91506107d482610795565b602082019050919050565b5f6020820190508181035f8301526107f6816107bd565b9050919050565b7f78206d7573742062652067726561746572207468616e203130000000000000005f82015250565b5f61083160198361071d565b915061083c826107fd565b602082019050919050565b5f6020820190508181035f83015261085e81610825565b9050919050565b7f4e487b71000000000000000000000000000000000000000000000000000000005f52601160045260245ffd5b5f61089c826105c9565b91506108a7836105c9565b92508282019050808211156108bf576108be610865565b5b92915050565b6108ce81610513565b82525050565b5f6040820190506108e75f8301856105a1565b6108f460208301846108c5565b9392505050565b5f61090582610682565b915061091083610682565b925082820190507fffffffffffffffffffffffffffffffffffffffffffffffffffffffffffffff808112607f8213171561094d5761094c610865565b5b92915050565b7f4e487b71000000000000000000000000000000000000000000000000000000005f52600160045260245ffdfea26469706673582212204c7e4a7ddf775ff575f398ecb374f298becf7f50d926221cc8ac636d237752f264736f6c634300081e0033",
					"opcodes": "PUSH1 0x80 PUSH1 0x40 MSTORE PUSH1 0x1 PUSH0 SSTORE PUSH32 0xFFFFFFFFFFFFFFFFFFFFFFFFFFFFFFFFFFFFFFFFFFFFFFFFFFFFFFFFFFFFFFFF PUSH1 0x1 SSTORE PUSH1 0x1 PUSH1 0x2 PUSH0 PUSH2 0x100 EXP DUP2 SLOAD DUP2 PUSH20 0xFFFFFFFFFFFFFFFFFFFFFFFFFFFFFFFFFFFFFFFF MUL NOT AND SWAP1 DUP4 PUSH20 0xFFFFFFFFFFFFFFFFFFFFFFFFFFFFFFFFFFFFFFFF AND MUL OR SWAP1 SSTORE POP PUSH1 0x1 PUSH1 0x2 PUSH1 0x14 PUSH2 0x100 EXP DUP2 SLOAD DUP2 PUSH1 0xFF MUL NOT AND SWAP1 DUP4 ISZERO ISZERO MUL OR SWAP1 SSTORE POP PUSH1 0x40 MLOAD DUP1 PUSH1 0x40 ADD PUSH1 0x40 MSTORE DUP1 PUSH1 0x8 DUP2 MSTORE PUSH1 0x20 ADD PUSH32 0x4C6561726E696E67000000000000000000000000000000000000000000000000 DUP2 MSTORE POP PUSH1 0x3 SWAP1 DUP2 PUSH2 0xCC SWAP2 SWAP1 PUSH2 0x3EB JUMP JUMPDEST POP PUSH1 0x40 MLOAD PUSH1 0x20 ADD PUSH2 0xDC SWAP1 PUSH2 0x50E JUMP JUMPDEST PUSH1 0x40 MLOAD PUSH1 0x20 DUP2 DUP4 SUB SUB DUP2 MSTORE SWAP1 PUSH1 0x40 MSTORE DUP1 MLOAD SWAP1 PUSH1 0x20 ADD KECCAK256 PUSH1 0x4 SSTORE CALLER PUSH1 0x5 PUSH0 PUSH2 0x100 EXP DUP2 SLOAD DUP2 PUSH20 0xFFFFFFFFFFFFFFFFFFFFFFFFFFFFFFFFFFFFFFFF MUL NOT AND SWAP1 DUP4 PUSH20 0xFFFFFFFFFFFFFFFFFFFFFFFFFFFFFFFFFFFFFFFF AND MUL OR SWAP1 SSTORE POP NUMBER PUSH1 0x6 SSTORE TIMESTAMP PUSH1 0x7 SSTORE GAS PUSH1 0x8 SSTORE PUSH1 0x2 PUSH1 0x9 PUSH0 PUSH2 0x100 EXP DUP2 SLOAD DUP2 PUSH20 0xFFFFFFFFFFFFFFFFFFFFFFFFFFFFFFFFFFFFFFFF MUL NOT AND SWAP1 DUP4 PUSH20 0xFFFFFFFFFFFFFFFFFFFFFFFFFFFFFFFFFFFFFFFF AND MUL OR SWAP1 SSTORE POP CALLVALUE DUP1 ISZERO PUSH2 0x18D JUMPI PUSH0 PUSH0 REVERT JUMPDEST POP PUSH1 0x1 PUSH1 0x9 PUSH1 0x14 PUSH2 0x100 EXP DUP2 SLOAD DUP2 PUSH1 0xFF MUL NOT AND SWAP1 DUP4 ISZERO ISZERO MUL OR SWAP1 SSTORE POP PUSH2 0x522 JUMP JUMPDEST PUSH0 DUP2 MLOAD SWAP1 POP SWAP2 SWAP1 POP JUMP JUMPDEST PUSH32 0x4E487B7100000000000000000000000000000000000000000000000000000000 PUSH0 MSTORE PUSH1 0x41 PUSH1 0x4 MSTORE PUSH1 0x24 PUSH0 REVERT JUMPDEST PUSH32 0x4E487B7100000000000000000000000000000000000000000000000000000000 PUSH0 MSTORE PUSH1 0x22 PUSH1 0x4 MSTORE PUSH1 0x24 PUSH0 REVERT JUMPDEST PUSH0 PUSH1 0x2 DUP3 DIV SWAP1 POP PUSH1 0x1 DUP3 AND DUP1 PUSH2 0x229 JUMPI PUSH1 0x7F DUP3 AND SWAP2 POP JUMPDEST PUSH1 0x20 DUP3 LT DUP2 SUB PUSH2 0x23C JUMPI PUSH2 0x23B PUSH2 0x1E5 JUMP JUMPDEST JUMPDEST POP SWAP2 SWAP1 POP JUMP JUMPDEST PUSH0 DUP2 SWAP1 POP DUP2 PUSH0 MSTORE PUSH1 0x20 PUSH0 KECCAK256 SWAP1 POP SWAP2 SWAP1 POP JUMP JUMPDEST PUSH0 PUSH1 0x20 PUSH1 0x1F DUP4 ADD DIV SWAP1 POP SWAP2 SWAP1 POP JUMP JUMPDEST PUSH0 DUP3 DUP3 SHL SWAP1 POP SWAP3 SWAP2 POP POP JUMP JUMPDEST PUSH0 PUSH1 0x8 DUP4 MUL PUSH2 0x29E PUSH32 0xFFFFFFFFFFFFFFFFFFFFFFFFFFFFFFFFFFFFFFFFFFFFFFFFFFFFFFFFFFFFFFFF DUP3 PUSH2 0x263 JUMP JUMPDEST PUSH2 0x2A8 DUP7 DUP4 PUSH2 0x263 JUMP JUMPDEST SWAP6 POP DUP1 NOT DUP5 AND SWAP4 POP DUP1 DUP7 AND DUP5 OR SWAP3 POP POP POP SWAP4 SWAP3 POP POP POP JUMP JUMPDEST PUSH0 DUP2 SWAP1 POP SWAP2 SWAP1 POP JUMP JUMPDEST PUSH0 DUP2 SWAP1 POP SWAP2 SWAP1 POP JUMP JUMPDEST PUSH0 PUSH2 0x2EC PUSH2 0x2E7 PUSH2 0x2E2 DUP5 PUSH2 0x2C0 JUMP JUMPDEST PUSH2 0x2C9 JUMP JUMPDEST PUSH2 0x2C0 JUMP JUMPDEST SWAP1 POP SWAP2 SWAP1 POP JUMP JUMPDEST PUSH0 DUP2 SWAP1 POP SWAP2 SWAP1 POP JUMP JUMPDEST PUSH2 0x305 DUP4 PUSH2 0x2D2 JUMP JUMPDEST PUSH2 0x319 PUSH2 0x311 DUP3 PUSH2 0x2F3 JUMP JUMPDEST DUP5 DUP5 SLOAD PUSH2 0x26F JUMP JUMPDEST DUP3 SSTORE POP POP POP POP JUMP JUMPDEST PUSH0 PUSH0 SWAP1 POP SWAP1 JUMP JUMPDEST PUSH2 0x330 PUSH2 0x321 JUMP JUMPDEST PUSH2 0x33B DUP2 DUP5 DUP5 PUSH2 0x2FC JUMP JUMPDEST POP POP POP JUMP JUMPDEST JUMPDEST DUP2 DUP2 LT ISZERO PUSH2 0x35E JUMPI PUSH2 0x353 PUSH0 DUP3 PUSH2 0x328 JUMP JUMPDEST PUSH1 0x1 DUP2 ADD SWAP1 POP PUSH2 0x341 JUMP JUMPDEST POP POP JUMP JUMPDEST PUSH1 0x1F DUP3 GT ISZERO PUSH2 0x3A3 JUMPI PUSH2 0x374 DUP2 PUSH2 0x242 JUMP JUMPDEST PUSH2 0x37D DUP5 PUSH2 0x254 JUMP JUMPDEST DUP2 ADD PUSH1 0x20 DUP6 LT ISZERO PUSH2 0x38C JUMPI DUP2 SWAP1 POP JUMPDEST PUSH2 0x3A0 PUSH2 0x398 DUP6 PUSH2 0x254 JUMP JUMPDEST DUP4 ADD DUP3 PUSH2 0x340 JUMP JUMPDEST POP POP JUMPDEST POP POP POP JUMP JUMPDEST PUSH0 DUP3 DUP3 SHR SWAP1 POP SWAP3 SWAP2 POP POP JUMP JUMPDEST PUSH0 PUSH2 0x3C3 PUSH0 NOT DUP5 PUSH1 0x8 MUL PUSH2 0x3A8 JUMP JUMPDEST NOT DUP1 DUP4 AND SWAP2 POP POP SWAP3 SWAP2 POP POP JUMP JUMPDEST PUSH0 PUSH2 0x3DB DUP4 DUP4 PUSH2 0x3B4 JUMP JUMPDEST SWAP2 POP DUP3 PUSH1 0x2 MUL DUP3 OR SWAP1 POP SWAP3 SWAP2 POP POP JUMP JUMPDEST PUSH2 0x3F4 DUP3 PUSH2 0x1AE JUMP JUMPDEST PUSH8 0xFFFFFFFFFFFFFFFF DUP2 GT ISZERO PUSH2 0x40D JUMPI PUSH2 0x40C PUSH2 0x1B8 JUMP JUMPDEST JUMPDEST PUSH2 0x417 DUP3 SLOAD PUSH2 0x212 JUMP JUMPDEST PUSH2 0x422 DUP3 DUP3 DUP6 PUSH2 0x362 JUMP JUMPDEST PUSH0 PUSH1 0x20 SWAP1 POP PUSH1 0x1F DUP4 GT PUSH1 0x1 DUP2 EQ PUSH2 0x453 JUMPI PUSH0 DUP5 ISZERO PUSH2 0x441 JUMPI DUP3 DUP8 ADD MLOAD SWAP1 POP JUMPDEST PUSH2 0x44B DUP6 DUP3 PUSH2 0x3D0 JUMP JUMPDEST DUP7 SSTORE POP PUSH2 0x4B2 JUMP JUMPDEST PUSH1 0x1F NOT DUP5 AND PUSH2 0x461 DUP7 PUSH2 0x242 JUMP JUMPDEST PUSH0 JUMPDEST DUP3 DUP2 LT ISZERO PUSH2 0x488 JUMPI DUP5 DUP10 ADD MLOAD DUP3 SSTORE PUSH1 0x1 DUP3 ADD SWAP2 POP PUSH1 0x20 DUP6 ADD SWAP5 POP PUSH1 0x20 DUP2 ADD SWAP1 POP PUSH2 0x463 JUMP JUMPDEST DUP7 DUP4 LT ISZERO PUSH2 0x4A5 JUMPI DUP5 DUP10 ADD MLOAD PUSH2 0x4A1 PUSH1 0x1F DUP10 AND DUP3 PUSH2 0x3B4 JUMP JUMPDEST DUP4 SSTORE POP JUMPDEST PUSH1 0x1 PUSH1 0x2 DUP9 MUL ADD DUP9 SSTORE POP POP POP JUMPDEST POP POP POP POP POP POP JUMP JUMPDEST PUSH0 DUP2 SWAP1 POP SWAP3 SWAP2 POP POP JUMP JUMPDEST PUSH32 0x4C6561726E696E67000000000000000000000000000000000000000000000000 PUSH0 DUP3 ADD MSTORE POP JUMP JUMPDEST PUSH0 PUSH2 0x4F8 PUSH1 0x8 DUP4 PUSH2 0x4BA JUMP JUMPDEST SWAP2 POP PUSH2 0x503 DUP3 PUSH2 0x4C4 JUMP JUMPDEST PUSH1 0x8 DUP3 ADD SWAP1 POP SWAP2 SWAP1 POP JUMP JUMPDEST PUSH0 PUSH2 0x518 DUP3 PUSH2 0x4EC JUMP JUMPDEST SWAP2 POP DUP2 SWAP1 POP SWAP2 SWAP1 POP JUMP JUMPDEST PUSH2 0x9B6 DUP1 PUSH2 0x52F PUSH0 CODECOPY PUSH0 RETURN INVALID PUSH1 0x80 PUSH1 0x40 MSTORE CALLVALUE DUP1 ISZERO PUSH2 0xF JUMPI PUSH0 PUSH0 REVERT JUMPDEST POP PUSH1 0x4 CALLDATASIZE LT PUSH2 0xCD JUMPI PUSH0 CALLDATALOAD PUSH1 0xE0 SHR DUP1 PUSH4 0x9BEDA1B2 GT PUSH2 0x8A JUMPI DUP1 PUSH4 0xCC2961C4 GT PUSH2 0x64 JUMPI DUP1 PUSH4 0xCC2961C4 EQ PUSH2 0x20D JUMPI DUP1 PUSH4 0xDF687982 EQ PUSH2 0x217 JUMPI DUP1 PUSH4 0xE2666777 EQ PUSH2 0x235 JUMPI DUP1 PUSH4 0xEB11813B EQ PUSH2 0x265 JUMPI PUSH2 0xCD JUMP JUMPDEST DUP1 PUSH4 0x9BEDA1B2 EQ PUSH2 0x191 JUMPI DUP1 PUSH4 0xA19844C0 EQ PUSH2 0x1C1 JUMPI DUP1 PUSH4 0xB7E70487 EQ PUSH2 0x1DD JUMPI PUSH2 0xCD JUMP JUMPDEST DUP1 PUSH4 0xB256FE3 EQ PUSH2 0xD1 JUMPI DUP1 PUSH4 0x3A756CEC EQ PUSH2 0xED JUMPI DUP1 PUSH4 0x533CB974 EQ PUSH2 0x10B JUMPI DUP1 PUSH4 0x5CEA126A EQ PUSH2 0x127 JUMPI DUP1 PUSH4 0x66199E38 EQ PUSH2 0x143 JUMPI DUP1 PUSH4 0x8F32D59B EQ PUSH2 0x173 JUMPI JUMPDEST PUSH0 PUSH0 REVERT JUMPDEST PUSH2 0xEB PUSH1 0x4 DUP1 CALLDATASIZE SUB DUP2 ADD SWAP1 PUSH2 0xE6 SWAP2 SWAP1 PUSH2 0x546 JUMP JUMPDEST PUSH2 0x281 JUMP JUMPDEST STOP JUMPDEST PUSH2 0xF5 PUSH2 0x319 JUMP JUMPDEST PUSH1 0x40 MLOAD PUSH2 0x102 SWAP2 SWAP1 PUSH2 0x5B0 JUMP JUMPDEST PUSH1 0x40 MLOAD DUP1 SWAP2 SUB SWAP1 RETURN JUMPDEST PUSH2 0x125 PUSH1 0x4 DUP1 CALLDATASIZE SUB DUP2 ADD SWAP1 PUSH2 0x120 SWAP2 SWAP1 PUSH2 0x5FC JUMP JUMPDEST PUSH2 0x31E JUMP JUMPDEST STOP JUMPDEST PUSH2 0x141 PUSH1 0x4 DUP1 CALLDATASIZE SUB DUP2 ADD SWAP1 PUSH2 0x13C SWAP2 SWAP1 PUSH2 0x5FC JUMP JUMPDEST PUSH2 0x364 JUMP JUMPDEST STOP JUMPDEST PUSH2 0x15D PUSH1 0x4 DUP1 CALLDATASIZE SUB DUP2 ADD SWAP1 PUSH2 0x158 SWAP2 SWAP1 PUSH2 0x5FC JUMP JUMPDEST PUSH2 0x3AA JUMP JUMPDEST PUSH1 0x40 MLOAD PUSH2 0x16A SWAP2 SWAP1 PUSH2 0x636 JUMP JUMPDEST PUSH1 0x40 MLOAD DUP1 SWAP2 SUB SWAP1 RETURN JUMPDEST PUSH2 0x17B PUSH2 0x3E1 JUMP JUMPDEST PUSH1 0x40 MLOAD PUSH2 0x188 SWAP2 SWAP1 PUSH2 0x669 JUMP JUMPDEST PUSH1 0x40 MLOAD DUP1 SWAP2 SUB SWAP1 RETURN JUMPDEST PUSH2 0x1AB PUSH1 0x4 DUP1 CALLDATASIZE SUB DUP2 ADD SWAP1 PUSH2 0x1A6 SWAP2 SWAP1 PUSH2 0x5FC JUMP JUMPDEST PUSH2 0x3F4 JUMP JUMPDEST PUSH1 0x40 MLOAD PUSH2 0x1B8 SWAP2 SWAP1 PUSH2 0x636 JUMP JUMPDEST PUSH1 0x40 MLOAD DUP1 SWAP2 SUB SWAP1 RETURN JUMPDEST PUSH2 0x1DB PUSH1 0x4 DUP1 CALLDATASIZE SUB DUP2 ADD SWAP1 PUSH2 0x1D6 SWAP2 SWAP1 PUSH2 0x546 JUMP JUMPDEST PUSH2 0x409 JUMP JUMPDEST STOP JUMPDEST PUSH2 0x1F7 PUSH1 0x4 DUP1 CALLDATASIZE SUB DUP2 ADD SWAP1 PUSH2 0x1F2 SWAP2 SWAP1 PUSH2 0x5FC JUMP JUMPDEST PUSH2 0x454 JUMP JUMPDEST PUSH1 0x40 MLOAD PUSH2 0x204 SWAP2 SWAP1 PUSH2 0x636 JUMP JUMPDEST PUSH1 0x40 MLOAD DUP1 SWAP2 SUB SWAP1 RETURN JUMPDEST PUSH2 0x215 PUSH2 0x470 JUMP JUMPDEST STOP JUMPDEST PUSH2 0x21F PUSH2 0x4C1 JUMP JUMPDEST PUSH1 0x40 MLOAD PUSH2 0x22C SWAP2 SWAP1 PUSH2 0x5B0 JUMP JUMPDEST PUSH1 0x40 MLOAD DUP1 SWAP2 SUB SWAP1 RETURN JUMPDEST PUSH2 0x24F PUSH1 0x4 DUP1 CALLDATASIZE SUB DUP2 ADD SWAP1 PUSH2 0x24A SWAP2 SWAP1 PUSH2 0x6B7 JUMP JUMPDEST PUSH2 0x4E6 JUMP JUMPDEST PUSH1 0x40 MLOAD PUSH2 0x25C SWAP2 SWAP1 PUSH2 0x704 JUMP JUMPDEST PUSH1 0x40 MLOAD DUP1 SWAP2 SUB SWAP1 RETURN JUMPDEST PUSH2 0x27F PUSH1 0x4 DUP1 CALLDATASIZE SUB DUP2 ADD SWAP1 PUSH2 0x27A SWAP2 SWAP1 PUSH2 0x5FC JUMP JUMPDEST PUSH2 0x4FB JUMP JUMPDEST STOP JUMPDEST PUSH1 0x9 PUSH1 0x14 SWAP1 SLOAD SWAP1 PUSH2 0x100 EXP SWAP1 DIV PUSH1 0xFF AND PUSH2 0x2D0 JUMPI PUSH1 0x40 MLOAD PUSH32 0x8C379A000000000000000000000000000000000000000000000000000000000 DUP2 MSTORE PUSH1 0x4 ADD PUSH2 0x2C7 SWAP1 PUSH2 0x777 JUMP JUMPDEST PUSH1 0x40 MLOAD DUP1 SWAP2 SUB SWAP1 REVERT JUMPDEST DUP1 PUSH1 0x12 DUP2 SLT ISZERO PUSH2 0x315 JUMPI PUSH1 0x40 MLOAD PUSH32 0x8C379A000000000000000000000000000000000000000000000000000000000 DUP2 MSTORE PUSH1 0x4 ADD PUSH2 0x30C SWAP1 PUSH2 0x7DF JUMP JUMPDEST PUSH1 0x40 MLOAD DUP1 SWAP2 SUB SWAP1 REVERT JUMPDEST POP POP JUMP JUMPDEST PUSH1 0x1 DUP2 JUMP JUMPDEST PUSH1 0xA DUP2 GT PUSH2 0x361 JUMPI PUSH1 0x40 MLOAD PUSH32 0x8C379A000000000000000000000000000000000000000000000000000000000 DUP2 MSTORE PUSH1 0x4 ADD PUSH2 0x358 SWAP1 PUSH2 0x847 JUMP JUMPDEST PUSH1 0x40 MLOAD DUP1 SWAP2 SUB SWAP1 REVERT JUMPDEST POP JUMP JUMPDEST PUSH1 0xA DUP2 GT PUSH2 0x3A7 JUMPI PUSH1 0x40 MLOAD PUSH32 0x8C379A000000000000000000000000000000000000000000000000000000000 DUP2 MSTORE PUSH1 0x4 ADD PUSH2 0x39E SWAP1 PUSH2 0x847 JUMP JUMPDEST PUSH1 0x40 MLOAD DUP1 SWAP2 SUB SWAP1 REVERT JUMPDEST POP JUMP JUMPDEST PUSH0 PUSH0 PUSH0 SWAP1 POP PUSH0 PUSH0 SWAP1 POP JUMPDEST DUP4 DUP2 LT ISZERO PUSH2 0x3D7 JUMPI DUP1 DUP3 PUSH2 0x3C8 SWAP2 SWAP1 PUSH2 0x892 JUMP JUMPDEST SWAP2 POP DUP1 DUP1 PUSH1 0x1 ADD SWAP2 POP POP PUSH2 0x3B4 JUMP JUMPDEST POP DUP1 SWAP2 POP POP SWAP2 SWAP1 POP JUMP JUMPDEST PUSH1 0x9 PUSH1 0x14 SWAP1 SLOAD SWAP1 PUSH2 0x100 EXP SWAP1 DIV PUSH1 0xFF AND DUP2 JUMP JUMPDEST PUSH0 PUSH0 SLOAD DUP3 PUSH2 0x402 SWAP2 SWAP1 PUSH2 0x892 JUMP JUMPDEST SWAP1 POP SWAP2 SWAP1 POP JUMP JUMPDEST PUSH1 0xA DUP2 SLT ISZERO PUSH2 0x451 JUMPI CALLER DUP2 PUSH1 0x40 MLOAD PUSH32 0x107ED84E00000000000000000000000000000000000000000000000000000000 DUP2 MSTORE PUSH1 0x4 ADD PUSH2 0x448 SWAP3 SWAP2 SWAP1 PUSH2 0x8D4 JUMP JUMPDEST PUSH1 0x40 MLOAD DUP1 SWAP2 SUB SWAP1 REVERT JUMPDEST POP JUMP JUMPDEST PUSH0 PUSH1 0xA DUP3 LT ISZERO PUSH2 0x466 JUMPI PUSH0 SWAP1 POP PUSH2 0x46B JUMP JUMPDEST PUSH1 0x1 SWAP1 POP JUMPDEST SWAP2 SWAP1 POP JUMP JUMPDEST PUSH1 0x9 PUSH1 0x14 SWAP1 SLOAD SWAP1 PUSH2 0x100 EXP SWAP1 DIV PUSH1 0xFF AND PUSH2 0x4BF JUMPI PUSH1 0x40 MLOAD PUSH32 0x8C379A000000000000000000000000000000000000000000000000000000000 DUP2 MSTORE PUSH1 0x4 ADD PUSH2 0x4B6 SWAP1 PUSH2 0x777 JUMP JUMPDEST PUSH1 0x40 MLOAD DUP1 SWAP2 SUB SWAP1 REVERT JUMPDEST JUMP JUMPDEST PUSH1 0x9 PUSH0 SWAP1 SLOAD SWAP1 PUSH2 0x100 EXP SWAP1 DIV PUSH20 0xFFFFFFFFFFFFFFFFFFFFFFFFFFFFFFFFFFFFFFFF AND DUP2 JUMP JUMPDEST PUSH0 DUP2 DUP4 PUSH2 0x4F3 SWAP2 SWAP1 PUSH2 0x8FB JUMP JUMPDEST SWAP1 POP SWAP3 SWAP2 POP POP JUMP JUMPDEST PUSH1 0xA DUP2 GT PUSH2 0x50C JUMPI PUSH2 0x50B PUSH2 0x953 JUMP JUMPDEST JUMPDEST POP JUMP JUMPDEST PUSH0 PUSH0 REVERT JUMPDEST PUSH0 DUP2 SWAP1 POP SWAP2 SWAP1 POP JUMP JUMPDEST PUSH2 0x525 DUP2 PUSH2 0x513 JUMP JUMPDEST DUP2 EQ PUSH2 0x52F JUMPI PUSH0 PUSH0 REVERT JUMPDEST POP JUMP JUMPDEST PUSH0 DUP2 CALLDATALOAD SWAP1 POP PUSH2 0x540 DUP2 PUSH2 0x51C JUMP JUMPDEST SWAP3 SWAP2 POP POP JUMP JUMPDEST PUSH0 PUSH1 0x20 DUP3 DUP5 SUB SLT ISZERO PUSH2 0x55B JUMPI PUSH2 0x55A PUSH2 0x50F JUMP JUMPDEST JUMPDEST PUSH0 PUSH2 0x568 DUP5 DUP3 DUP6 ADD PUSH2 0x532 JUMP JUMPDEST SWAP2 POP POP SWAP3 SWAP2 POP POP JUMP JUMPDEST PUSH0 PUSH20 0xFFFFFFFFFFFFFFFFFFFFFFFFFFFFFFFFFFFFFFFF DUP3 AND SWAP1 POP SWAP2 SWAP1 POP JUMP JUMPDEST PUSH0 PUSH2 0x59A DUP3 PUSH2 0x571 JUMP JUMPDEST SWAP1 POP SWAP2 SWAP1 POP JUMP JUMPDEST PUSH2 0x5AA DUP2 PUSH2 0x590 JUMP JUMPDEST DUP3 MSTORE POP POP JUMP JUMPDEST PUSH0 PUSH1 0x20 DUP3 ADD SWAP1 POP PUSH2 0x5C3 PUSH0 DUP4 ADD DUP5 PUSH2 0x5A1 JUMP JUMPDEST SWAP3 SWAP2 POP POP JUMP JUMPDEST PUSH0 DUP2 SWAP1 POP SWAP2 SWAP1 POP JUMP JUMPDEST PUSH2 0x5DB DUP2 PUSH2 0x5C9 JUMP JUMPDEST DUP2 EQ PUSH2 0x5E5 JUMPI PUSH0 PUSH0 REVERT JUMPDEST POP JUMP JUMPDEST PUSH0 DUP2 CALLDATALOAD SWAP1 POP PUSH2 0x5F6 DUP2 PUSH2 0x5D2 JUMP JUMPDEST SWAP3 SWAP2 POP POP JUMP JUMPDEST PUSH0 PUSH1 0x20 DUP3 DUP5 SUB SLT ISZERO PUSH2 0x611 JUMPI PUSH2 0x610 PUSH2 0x50F JUMP JUMPDEST JUMPDEST PUSH0 PUSH2 0x61E DUP5 DUP3 DUP6 ADD PUSH2 0x5E8 JUMP JUMPDEST SWAP2 POP POP SWAP3 SWAP2 POP POP JUMP JUMPDEST PUSH2 0x630 DUP2 PUSH2 0x5C9 JUMP JUMPDEST DUP3 MSTORE POP POP JUMP JUMPDEST PUSH0 PUSH1 0x20 DUP3 ADD SWAP1 POP PUSH2 0x649 PUSH0 DUP4 ADD DUP5 PUSH2 0x627 JUMP JUMPDEST SWAP3 SWAP2 POP POP JUMP JUMPDEST PUSH0 DUP2 ISZERO ISZERO SWAP1 POP SWAP2 SWAP1 POP JUMP JUMPDEST PUSH2 0x663 DUP2 PUSH2 0x64F JUMP JUMPDEST DUP3 MSTORE POP POP JUMP JUMPDEST PUSH0 PUSH1 0x20 DUP3 ADD SWAP1 POP PUSH2 0x67C PUSH0 DUP4 ADD DUP5 PUSH2 0x65A JUMP JUMPDEST SWAP3 SWAP2 POP POP JUMP JUMPDEST PUSH0 DUP2 PUSH0 SIGNEXTEND SWAP1 POP SWAP2 SWAP1 POP JUMP JUMPDEST PUSH2 0x696 DUP2 PUSH2 0x682 JUMP JUMPDEST DUP2 EQ PUSH2 0x6A0 JUMPI PUSH0 PUSH0 REVERT JUMPDEST POP JUMP JUMPDEST PUSH0 DUP2 CALLDATALOAD SWAP1 POP PUSH2 0x6B1 DUP2 PUSH2 0x68D JUMP JUMPDEST SWAP3 SWAP2 POP POP JUMP JUMPDEST PUSH0 PUSH0 PUSH1 0x40 DUP4 DUP6 SUB SLT ISZERO PUSH2 0x6CD JUMPI PUSH2 0x6CC PUSH2 0x50F JUMP JUMPDEST JUMPDEST PUSH0 PUSH2 0x6DA DUP6 DUP3 DUP7 ADD PUSH2 0x6A3 JUMP JUMPDEST SWAP3 POP POP PUSH1 0x20 PUSH2 0x6EB DUP6 DUP3 DUP7 ADD PUSH2 0x6A3 JUMP JUMPDEST SWAP2 POP POP SWAP3 POP SWAP3 SWAP1 POP JUMP JUMPDEST PUSH2 0x6FE DUP2 PUSH2 0x682 JUMP JUMPDEST DUP3 MSTORE POP POP JUMP JUMPDEST PUSH0 PUSH1 0x20 DUP3 ADD SWAP1 POP PUSH2 0x717 PUSH0 DUP4 ADD DUP5 PUSH2 0x6F5 JUMP JUMPDEST SWAP3 SWAP2 POP POP JUMP JUMPDEST PUSH0 DUP3 DUP3 MSTORE PUSH1 0x20 DUP3 ADD SWAP1 POP SWAP3 SWAP2 POP POP JUMP JUMPDEST PUSH32 0x4E6F74206F776E65720000000000000000000000000000000000000000000000 PUSH0 DUP3 ADD MSTORE POP JUMP JUMPDEST PUSH0 PUSH2 0x761 PUSH1 0x9 DUP4 PUSH2 0x71D JUMP JUMPDEST SWAP2 POP PUSH2 0x76C DUP3 PUSH2 0x72D JUMP JUMPDEST PUSH1 0x20 DUP3 ADD SWAP1 POP SWAP2 SWAP1 POP JUMP JUMPDEST PUSH0 PUSH1 0x20 DUP3 ADD SWAP1 POP DUP2 DUP2 SUB PUSH0 DUP4 ADD MSTORE PUSH2 0x78E DUP2 PUSH2 0x755 JUMP JUMPDEST SWAP1 POP SWAP2 SWAP1 POP JUMP JUMPDEST PUSH32 0x4E6F74206164756C740000000000000000000000000000000000000000000000 PUSH0 DUP3 ADD MSTORE POP JUMP JUMPDEST PUSH0 PUSH2 0x7C9 PUSH1 0x9 DUP4 PUSH2 0x71D JUMP JUMPDEST SWAP2 POP PUSH2 0x7D4 DUP3 PUSH2 0x795 JUMP JUMPDEST PUSH1 0x20 DUP3 ADD SWAP1 POP SWAP2 SWAP1 POP JUMP JUMPDEST PUSH0 PUSH1 0x20 DUP3 ADD SWAP1 POP DUP2 DUP2 SUB PUSH0 DUP4 ADD MSTORE PUSH2 0x7F6 DUP2 PUSH2 0x7BD JUMP JUMPDEST SWAP1 POP SWAP2 SWAP1 POP JUMP JUMPDEST PUSH32 0x78206D7573742062652067726561746572207468616E20313000000000000000 PUSH0 DUP3 ADD MSTORE POP JUMP JUMPDEST PUSH0 PUSH2 0x831 PUSH1 0x19 DUP4 PUSH2 0x71D JUMP JUMPDEST SWAP2 POP PUSH2 0x83C DUP3 PUSH2 0x7FD JUMP JUMPDEST PUSH1 0x20 DUP3 ADD SWAP1 POP SWAP2 SWAP1 POP JUMP JUMPDEST PUSH0 PUSH1 0x20 DUP3 ADD SWAP1 POP DUP2 DUP2 SUB PUSH0 DUP4 ADD MSTORE PUSH2 0x85E DUP2 PUSH2 0x825 JUMP JUMPDEST SWAP1 POP SWAP2 SWAP1 POP JUMP JUMPDEST PUSH32 0x4E487B7100000000000000000000000000000000000000000000000000000000 PUSH0 MSTORE PUSH1 0x11 PUSH1 0x4 MSTORE PUSH1 0x24 PUSH0 REVERT JUMPDEST PUSH0 PUSH2 0x89C DUP3 PUSH2 0x5C9 JUMP JUMPDEST SWAP2 POP PUSH2 0x8A7 DUP4 PUSH2 0x5C9 JUMP JUMPDEST SWAP3 POP DUP3 DUP3 ADD SWAP1 POP DUP1 DUP3 GT ISZERO PUSH2 0x8BF JUMPI PUSH2 0x8BE PUSH2 0x865 JUMP JUMPDEST JUMPDEST SWAP3 SWAP2 POP POP JUMP JUMPDEST PUSH2 0x8CE DUP2 PUSH2 0x513 JUMP JUMPDEST DUP3 MSTORE POP POP JUMP JUMPDEST PUSH0 PUSH1 0x40 DUP3 ADD SWAP1 POP PUSH2 0x8E7 PUSH0 DUP4 ADD DUP6 PUSH2 0x5A1 JUMP JUMPDEST PUSH2 0x8F4 PUSH1 0x20 DUP4 ADD DUP5 PUSH2 0x8C5 JUMP JUMPDEST SWAP4 SWAP3 POP POP POP JUMP JUMPDEST PUSH0 PUSH2 0x905 DUP3 PUSH2 0x682 JUMP JUMPDEST SWAP2 POP PUSH2 0x910 DUP4 PUSH2 0x682 JUMP JUMPDEST SWAP3 POP DUP3 DUP3 ADD SWAP1 POP PUSH32 0xFFFFFFFFFFFFFFFFFFFFFFFFFFFFFFFFFFFFFFFFFFFFFFFFFFFFFFFFFFFFFF80 DUP2 SLT PUSH1 0x7F DUP3 SGT OR ISZERO PUSH2 0x94D JUMPI PUSH2 0x94C PUSH2 0x865 JUMP JUMPDEST JUMPDEST SWAP3 SWAP2 POP POP JUMP JUMPDEST PUSH32 0x4E487B7100000000000000000000000000000000000000000000000000000000 PUSH0 MSTORE PUSH1 0x1 PUSH1 0x4 MSTORE PUSH1 0x24 PUSH0 REVERT INVALID LOG2 PUSH5 0x6970667358 0x22 SLT KECCAK256 0x4C PUSH31 0x4A7DDF775FF575F398ECB374F298BECF7F50D926221CC8AC636D237752F264 PUSH20 0x6F6C634300081E00330000000000000000000000 "
				},
				"gasEstimates": {
					"creation": {
						"codeDepositCost": "497200",
						"executionCost": "infinite",
						"totalCost": "infinite"
					},
					"external": {
						"MY_ADDRESS()": "396",
						"MY_ADDRESS2()": "2552",
						"add(int8,int8)": "infinite",
						"assertExample(uint256)": "537",
						"customErrorExample(int256)": "infinite",
						"exampleView(uint256)": "infinite",
						"forLoopExample(uint256)": "infinite",
						"ifElseExample(uint256)": "infinite",
						"isOwner()": "2628",
						"requireExample(uint256)": "773",
						"revertExample(uint256)": "751",
						"someFunctionOnlyAdultOwnerCanCall(int256)": "2916",
						"someFunctionOnlyOwnerCanCall()": "2652"
					}
				},
				"methodIdentifiers": {
					"MY_ADDRESS()": "3a756cec",
					"MY_ADDRESS2()": "df687982",
					"add(int8,int8)": "e2666777",
					"assertExample(uint256)": "eb11813b",
					"customErrorExample(int256)": "a19844c0",
					"exampleView(uint256)": "9beda1b2",
					"forLoopExample(uint256)": "66199e38",
					"ifElseExample(uint256)": "b7e70487",
					"isOwner()": "8f32d59b",
					"requireExample(uint256)": "5cea126a",
					"revertExample(uint256)": "533cb974",
					"someFunctionOnlyAdultOwnerCanCall(int256)": "0b256fe3",
					"someFunctionOnlyOwnerCanCall()": "cc2961c4"
				}
			},
			"storageLayout": {
				"storage": [
					{
						"astId": 4,
						"contract": "learning.sol:Learning",
						"label": "a",
						"offset": 0,
						"slot": "0",
						"type": "t_uint256"
					},
					{
						"astId": 8,
						"contract": "learning.sol:Learning",
						"label": "b",
						"offset": 0,
						"slot": "1",
						"type": "t_int256"
					},
					{
						"astId": 14,
						"contract": "learning.sol:Learning",
						"label": "addr",
						"offset": 0,
						"slot": "2",
						"type": "t_address"
					},
					{
						"astId": 17,
						"contract": "learning.sol:Learning",
						"label": "isTrue",
						"offset": 20,
						"slot": "2",
						"type": "t_bool"
					},
					{
						"astId": 20,
						"contract": "learning.sol:Learning",
						"label": "name",
						"offset": 0,
						"slot": "3",
						"type": "t_string_storage"
					},
					{
						"astId": 28,
						"contract": "learning.sol:Learning",
						"label": "hash",
						"offset": 0,
						"slot": "4",
						"type": "t_bytes32"
					},
					{
						"astId": 46,
						"contract": "learning.sol:Learning",
						"label": "sender",
						"offset": 0,
						"slot": "5",
						"type": "t_address"
					},
					{
						"astId": 50,
						"contract": "learning.sol:Learning",
						"label": "blockNumber",
						"offset": 0,
						"slot": "6",
						"type": "t_uint256"
					},
					{
						"astId": 54,
						"contract": "learning.sol:Learning",
						"label": "timestamp",
						"offset": 0,
						"slot": "7",
						"type": "t_uint256"
					},
					{
						"astId": 58,
						"contract": "learning.sol:Learning",
						"label": "gasLeft",
						"offset": 0,
						"slot": "8",
						"type": "t_uint256"
					},
					{
						"astId": 82,
						"contract": "learning.sol:Learning",
						"label": "MY_ADDRESS2",
						"offset": 0,
						"slot": "9",
						"type": "t_address"
					},
					{
						"astId": 194,
						"contract": "learning.sol:Learning",
						"label": "isOwner",
						"offset": 20,
						"slot": "9",
						"type": "t_bool"
					}
				],
				"types": {
					"t_address": {
						"encoding": "inplace",
						"label": "address",
						"numberOfBytes": "20"
					},
					"t_bool": {
						"encoding": "inplace",
						"label": "bool",
						"numberOfBytes": "1"
					},
					"t_bytes32": {
						"encoding": "inplace",
						"label": "bytes32",
						"numberOfBytes": "32"
					},
					"t_int256": {
						"encoding": "inplace",
						"label": "int256",
						"numberOfBytes": "32"
					},
					"t_string_storage": {
						"encoding": "bytes",
						"label": "string",
						"numberOfBytes": "32"
					},
					"t_uint256": {
						"encoding": "inplace",
						"label": "uint256",
						"numberOfBytes": "32"
					}
				}
			},
			"userdoc": {
				"kind": "user",
				"methods": {},
				"version": 1
			}
		}
	}
}